:100000000C9463000C948B000C948B000C948B006C
:100010000C948B000C948B000C948B000C948B0034
:100020000C948B000C948B000C948B000C94370D6B
:100030000C948B000C948B000C948B000C948B0014
:100040000C9459110C948B000C94F60D0C94440EE6
:100050000C948B000C948B000C948B000C948B00F4
:100060000C948B000C948B000000000024002700EF
:100070002A0000000000250028002B0000000000DE
:1000800023002600290004040404040404040202DA
:100090000202020203030303030301020408102007
:1000A0004080010204081020010204081020000012
:1000B0000007000201000003040600000000000029
:1000C0000000B703B00F11241FBECFEFD8E0DEBF92
:1000D000CDBF11E0A0E0B1E0EEE9FBE202C0059087
:1000E0000D92A832B107D9F712E0A8E2B1E001C041
:1000F0001D92AD38B107E1F710E0C6ECD0E004C0C6
:100100002297FE010E94C915C23CD107C9F70E947F
:1001100006100C94CD150C940000CF92DF92EF9254
:10012000FF920F931F9380914F016FE70E94561526
:10013000992787FD9095A92FB92FBC01CD010E9469
:1001400014146B017C0160916A0170916B018091C4
:100150006C0190916D01A70196010E9410136093AC
:100160006A0170936B0180936C0190936D010AE6B4
:1001700011E0F80192918291729162918F01A70131
:1001800096010E941113F801608371838283938327
:100190001F910F91FF90EF90DF90CF900895CF9235
:1001A000DF92EF92FF920F931F9380914F016FE7C1
:1001B0000E945615992787FD9095A92FB92FBC014C
:1001C000CD010E9414146B017C0160916A01709151
:1001D0006B0180916C0190916D01A70196010E94C5
:1001E000101360936A0170936B0180936C0190937C
:1001F0006D010AE611E0F80192918291729162918B
:100200008F01A70196010E941113F8016083718389
:10021000828393831F910F91FF90EF90DF90CF9097
:100220000895CF92DF92EF92FF920F931F938091E8
:100230004E016FE70E945615992787FD9095A92FCB
:10024000B92FBC01CD010E9414146B017C01609197
:100250006201709163018091640190916501A70131
:1002600096010E9410136093620170936301809362
:1002700064019093650102E611E0F8019291829188
:10028000729162918F01A70196010E941113F801EA
:1002900060837183828393831F910F91FF90EF900E
:1002A000DF90CF900895CF92DF92EF92FF920F935D
:1002B0001F9380914E016FE70E945615992787FD85
:1002C0009095A92FB92FBC01CD010E9414146B0188
:1002D0007C01609162017091630180916401909151
:1002E0006501A70196010E9410136093620170934B
:1002F0006301809364019093650102E611E0F801C7
:1003000092918291729162918F01A70196010E9450
:100310001113F80160837183828393831F910F917E
:10032000FF90EF90DF90CF900895AF92BF92CF9261
:10033000DF92EF92FF920F931F93CF93DF93609121
:100340005001772767FD7095872F972F0E9414140F
:10035000209114013091150140911601509117011F
:100360000E94C81420E030E044EA52E40E94C8141D
:1003700020E030E044E353E40E94791320E030E0D1
:1003800048E852E40E9411130E94E113882777FD88
:100390008095982F0E9414147B018C0160935E015C
:1003A00070935F01809360019093610160917E0181
:1003B00070917F01809180019091810120E030E077
:1003C00040E050E00E941113E0926201F09263015C
:1003D00000936401109365012091820130918301A3
:1003E00040918401509185010E941113E0926601B1
:1003F000F0926701009368011093690120918601D2
:100400003091870140918801509189010E94111318
:10041000E0926A01F0926B0100936C0110936D0100
:1004200020918A0130918B0140918C0150918D0176
:100430000E94111320E030E040E85EE30E94C814FF
:100440005B016C01A80197010E9475138823FCF4DD
:10045000C601B50120E030E040EF52E40E94751380
:100460008823ACF4CEE7D1E0688179818A819B81D1
:1004700020E030E040E85FE30E9411136993799334
:100480008993999381E0CE38D80771F714C0CEE7ED
:10049000D1E0688179818A819B8120E030E040E869
:1004A0005FE30E941013699379938993999381E094
:1004B000CE38D80771F7DF91CF911F910F91FF9040
:1004C000EF90DF90CF90BF90AF900895EF92FF92A2
:1004D0000F931F930F2EF0E0EF2EF0E0FF2EF0E0D1
:1004E0000F2FF0E01F2FF02DE0925E01F0925F01E0
:1004F000009360011093610160917E0170917F0112
:10050000809180019091810120E030E040E85FE33C
:100510000E94101360937E0170937F01809380018D
:1005200090938101E0926201F09263010093640173
:100530001093650160918201709183018091840123
:100540009091850120E030E040E85FE30E941013C5
:10055000609382017093830180938401909385015D
:10056000E0926601F09267010093680110936901BF
:100570006091860170918701809188019091890135
:1005800020E030E040E85FE30E94101360938601B2
:10059000709387018093880190938901E0926A01AA
:1005A000F0926B0100936C0110936D0160918A01D0
:1005B00070918B0180918C0190918D0120E030E051
:1005C00040E85FE30E94101360938A0170938B01EF
:1005D00080938C0190938D011F910F91FF90EF906C
:1005E000089580914E0118161CF40E94110104C058
:1005F000882311F00E94530180914F0118161CF4BA
:100600000E948D0004C0882311F00E94CF008091C9
:10061000500118161CF40E9495010895882311F0CA
:100620000E94660208956F927F928F929F92AF927E
:10063000BF92CF92DF92EF92FF920F931F93CF93CF
:10064000DF93CEE5D1E08EE7882E81E0982E34014D
:100650000F2EF0E0AF2EF0E0BF2EF0E0CF2EF0E056
:10066000DF2EF02DE880F9800A811B81C801B701D7
:1006700020E030E048E852E40E94751388232CF40F
:1006800080E090E0A8E8B2E40EC0C801B70120E025
:1006900030E046E153E40E94C414181644F480E0AC
:1006A00090E0A6E1B3E488839983AA83BB83C60163
:1006B000B501F30121913191419151913F010E9486
:1006C00011135B016C012496F1E0CE36DF0751F681
:1006D00020E030E040E85EE30E94C8147B018C011A
:1006E000C801B70120E030E046E952E40E947513EA
:1006F00088232CF460E070E086E992E40EC0C80123
:10070000B70120E030E040EF52E40E94C414181614
:10071000B4F460E070E080EF92E4A80197010E94D9
:1007200010139B01AC01F40160817181828193817E
:100730000E941113F401608371838283938384E0A8
:1007400090E0880E991E9EE8891691E0990641F680
:10075000DF91CF911F910F91FF90EF90DF90CF909D
:10076000BF90AF909F908F907F906F9008950F9360
:100770001F9302E511E0C8010E94F30BC801039624
:100780000E94F30BC80106960E94F30BC80109965C
:100790000E94F30B60E070E080E89FE32091080185
:1007A0003091090140910A0150910B010E94791387
:1007B0006093A6017093A7018093A8019093A9016B
:1007C0001F910F9108952F923F924F925F926F92D7
:1007D0007F928F929F92AF92BF92CF92DF92EF92D1
:1007E000FF920F931F931B012C010E94E113672BB3
:1007F00019F5E0909201F09093010091940110910D
:100800009501C801B70120E030E040E050E00E94CF
:10081000C41418161CF4C801B70139C0C801B701C7
:1008200020E030E040E050E00E94751388230CF097
:100830003CC0C801B70112C0C201B10120E030E0E4
:1008400040E050E00E94C41418167CF460919201BC
:1008500070919301809194019091950120E030E096
:1008600040E85FE30E94111318C0C201B10120E00B
:1008700030E040E050E00E9475138823B4F46091AA
:10088000920170919301809194019091950120E0E3
:1008900030E040E85FE30E94101360939201709390
:1008A00093018093940190939501A0909201B09050
:1008B0009301C0909401D0909501E0900801F090D0
:1008C000090100910A0110910B01C601B501A801AF
:1008D00097010E94C4141816A4F5E0900C01F09042
:1008E0000D0100910E0110910F0160918601709130
:1008F00087018091880190918901A80197010E9448
:1009000011136093860170938701809388019093FF
:10091000890160918A0170918B0180918C01909185
:100920008D01A80197010E94101360938A017093B2
:100930008B0180938C0190938D018091000161E087
:100940003DC0A80197015058C601B5010E9475131A
:1009500088230CF041C0E0900C01F0900D01009153
:100960000E0110910F0160918601709187018091B5
:10097000880190918901A80197010E94101360934A
:10098000860170938701809388019093890160911B
:100990008A0170918B0180918C0190918D01A80149
:1009A00097010E94111360938A0170938B018093C9
:1009B0008C0190938D018091000160E00E9494125F
:1009C00080E090E0A0E0B0E08093920190939301EA
:1009D000A0939401B0939501C201B1012091A201AD
:1009E0003091A3014091A4015091A5010E941113DF
:1009F0005B016C016093A2017093A3018093A40139
:100A00009093A501C201B10120919A0130919B01FF
:100A100040919C0150919D010E9410133B014C019B
:100A200020929A0130929B0140929C0150929D012C
:100A3000C201B1012091A6013091A7014091A80106
:100A40005091A9010E94C8147B018C01C601B50117
:100A50002091AA013091AB014091AC015091AD01C0
:100A60000E94C8149B01AC01C801B7010E94111378
:100A70007B018C01C401B3012091AE013091AF0123
:100A80004091B0015091B1010E94C8149B01AC018A
:100A9000C801B7010E9411137B018C01609186018E
:100AA00070918701809188019091890120918A013C
:100AB00030918B0140918C0150918D010E94101357
:100AC00020E030E040E05FE30E94C8149B01AC01ED
:100AD000C801B7010E9411137B018C01609166016E
:100AE000709167018091680190916901A801970157
:100AF0000E941113609366017093670180936801EF
:100B00009093690160916A0170916B0180916C0111
:100B100090916D01A80197010E94101360936A01E2
:100B200070936B0180936C0190936D011F910F91F5
:100B3000FF90EF90DF90CF90BF90AF909F908F90FD
:100B40007F906F905F904F903F902F9008952F92DD
:100B50003F924F925F926F927F928F929F92AF924D
:100B6000BF92CF92DF92EF92FF920F931F931B01E0
:100B70002C010E94E113672B19F5E0908E01F09093
:100B80008F010091900110919101C801B70120E0FF
:100B900030E040E050E00E94C41418161CF4C80174
:100BA000B70139C0C801B70120E030E040E050E0B3
:100BB0000E94751388230CF03CC0C801B70112C015
:100BC000C201B10120E030E040E050E00E94C414D6
:100BD00018167CF460918E0170918F0180919001C4
:100BE0009091910120E030E040E85FE30E94111312
:100BF00018C0C201B10120E030E040E050E00E94A6
:100C000075138823B4F460918E0170918F018091E7
:100C100090019091910120E030E040E85FE30E9474
:100C2000101360938E0170938F01809390019093C5
:100C30009101A0908E01B0908F01C0909001D09052
:100C40009101E0900801F090090100910A011091D2
:100C50000B01C601B501A80197010E94C414181622
:100C60004CF5E0900C01F0900D0100910E011091F7
:100C70000F0160917E0170917F01809180019091C0
:100C80008101A80197010E94111360937E01709366
:100C90007F01809380019093810160918201709126
:100CA00083018091840190918501A80197010E94A0
:100CB000101332C0A80197015058C601B5010E9417
:100CC000751388230CF041C0E0900C01F0900D01E9
:100CD00000910E0110910F0160917E0170917F01D2
:100CE0008091800190918101A80197010E941013C9
:100CF00060937E0170937F018093800190938101C6
:100D000060918201709183018091840190918501AD
:100D1000A80197010E9411136093820170938301CF
:100D200080938401909385018091000161E00E948D
:100D3000941280E090E0A0E0B0E080938E01909368
:100D40008F01A0939001B0939101C201B101209154
:100D50009E0130919F014091A0015091A1010E94FC
:100D600011135B016C0160939E0170939F0180934E
:100D7000A0019093A101C201B1012091960130918F
:100D8000970140919801509199010E9410133B01E5
:100D90004C01209296013092970140929801509216
:100DA0009901C201B1012091A6013091A7014091A2
:100DB000A8015091A9010E94C8147B018C01C601B1
:100DC000B5012091AA013091AB014091AC01509145
:100DD000AD010E94C8149B01AC01C801B7010E947B
:100DE00011137B018C01C401B3012091AE0130913C
:100DF000AF014091B0015091B1010E94C8149B0114
:100E0000AC01C801B7010E9411137B018C016091F4
:100E10007E0170917F0180918001909181012091EC
:100E200082013091830140918401509185010E949B
:100E3000101320E030E040E05FE30E94C8149B0103
:100E4000AC01C801B7010E9411137B018C016091B4
:100E50005E0170915F018091600190916101A80134
:100E600097010E94111360935E0170935F0180935C
:100E700060019093610160916201709163018091C2
:100E8000640190916501A80197010E94101360937D
:100E900062017093630180936401909365011F91D7
:100EA0000F91FF90EF90DF90CF90BF90AF909F9009
:100EB0008F907F906F905F904F903F902F9008950C
:100EC0000F931F93182F062F8AE060E00E94941260
:100ED0001EBD0DB407FEFDCF8EB50EBD0DB407FED1
:100EE000FDCF8EB58AE061E00E9494121F910F91B0
:100EF0000895EF92FF921F93CF93DF93EB017A0156
:100F0000182F10686230710514F0182F106C8AE0E9
:100F100060E00E9494121EBD0DB407FEFDCF8EB599
:100F200020E030E00BC01EBC0DB407FEFDCF8EB537
:100F3000F701E20FF31F80832F5F3F4F2C173D0710
:100F400094F38AE061E00E949412DF91CF911F91A7
:100F5000FF90EF90089582E366E070E04CE251E08C
:100F60000E94790780912D01992787FD90958370C4
:100F70009070982F882720912C01332727FD3095DA
:100F8000822B932B909333018093320180912F0118
:100F9000992787FD909583709070982F88272091CE
:100FA0002E01332727FD3095822B932B909335010B
:100FB0008093340180913101992787FD909583704A
:100FC0009070982F882720913001332727FD309586
:100FD000822B932B909337018093360108952F92A3
:100FE0003F924F925F926F927F928F929F92AF92B9
:100FF000BF92CF92DF92EF92FF920F931F93DF93F6
:10100000CF93CDB7DEB728970FB6F894DEBF0FBEEB
:10101000CDBF80914C0190914D01009709F069C0BE
:1010200080E090E0A8E1B2E480937E0190937F019C
:10103000A0938001B093810180935E0190935F0142
:10104000A0936001B093610120E03FEF4FE757E4C8
:1010500020936E0130936F014093700150937101A2
:101060008093820190938301A0938401B0938501C2
:101070008093620190936301A0936401B093650132
:101080002093720130937301409374015093750162
:101090008093860190938701A0938801B093890182
:1010A0008093660190936701A0936801B0936901F2
:1010B0002093760130937701409378015093790122
:1010C00080938A0190938B01A0938C01B0938D0142
:1010D00080936A0190936B01A0936C01B0936D01B2
:1010E00020937A0130937B0140937C0150937D01E2
:1010F0005FC00197F1F48091000160E00E949412BA
:1011000080E090E020E030E048E852E4FC01E25862
:10111000FE4F2083318342835383FC01E25AFE4F0A
:10112000208331834283538304968031910571F784
:101130003FC08091B2019091B301039734F00E94B7
:10114000F1021092B3011092B2018091B20190911C
:10115000B30101969093B3018093B2010E94AB0753
:101160006091320170913301209138013091390141
:10117000621B730B882777FD8095982F0E941414AB
:101180000E94A7050E94AB07609134017091350160
:1011900020913A0130913B01621B730B882777FD48
:1011A0008095982F0E9414140E94E3030E94130359
:1011B000FEE54F2EF1E05F2EEEE68E2EE1E09E2E54
:1011C000720166247724D701AD90BD90CD90DC905C
:1011D000C601B501F40120813181428153810E9411
:1011E00075138823D9F08301000F111F060D171DF9
:1011F0000E5A1E4FC601B5010E94E1139B01AC01BE
:10120000C801B9010E94490CF70180819181A28136
:10121000B381F40180839183A283B3830894611C1A
:10122000711C84E090E0E80EF91E880E991E94E08F
:101230006916710441F66090040170900501809078
:10124000060190900701D401C301B0588D839E839D
:10125000AF83B8878091100190911101A091120184
:10126000B091130189839A83AB83BC836EE7262EEA
:1012700061E0362E80914C0190914D0102970CF463
:1012800063C0D101AD90BD90CD90DC90F201608142
:10129000718182819381A60195010E941013A4019E
:1012A00093010E94C414181664F4C601B501A40188
:1012B00093010E941113D2016D937D938D939C93A2
:1012C0001397F2016081718182819381A60195015A
:1012D0000E9410132D813E814F8158850E94751305
:1012E000882364F4C601B501A40193010E94101380
:1012F000D2016D937D938D939C931397F201E080BF
:10130000F18002811381C801B701A60195010E94F5
:10131000101329813A814B815C810E9479139B01D2
:10132000AC01C801B7010E941013D2016D937D93E7
:101330008D939D932D01E4E0F0E02E0E3F1EF1E031
:10134000AE36BF0709F09DCF28960FB6F894DEBFE2
:101350000FBECDBFCF91DF911F910F91FF90EF9006
:10136000DF90CF90BF90AF909F908F907F906F90C5
:101370005F904F903F902F9008958F929F92AF92E1
:10138000BF92CF92DF92EF92FF920F931F93CF9372
:10139000DF9382E591E063E070E00E94300D85E527
:1013A00091E065E070E00E94300D88E591E066E034
:1013B00070E00E94300D8BE591E069E070E00E94E2
:1013C000300D00E010E0C0E0D0E00F2EF0E0CF2EB6
:1013D000F0E0DF2EF8E1EF2EF2E4FF2EF02D0F2EDD
:1013E000F0E08F2EFFEF9F2EFFE7AF2EF7E4BF2E2A
:1013F000F02DFE01E258FE4FC082D182E282F382DC
:10140000FE01E25AFE4FC082D182E282F382FE01E7
:10141000E259FE4F80829182A282B382C801880F76
:10142000991F800F911F8E5A9E4F66E270E00E94B6
:10143000490C0F5F1F4F249604301105D1F6DF9140
:10144000CF911F910F91FF90EF90DF90CF90BF90C1
:10145000AF909F908F9008950F931F9382E692E034
:101460000E94060F892B49F100914A0110914B010E
:1014700082E692E00E94370F005C1E4FF8018083E5
:1014800080914A0190914B01019690934B0180937A
:101490004A01019791F490914001892F8051833046
:1014A00060F0903251F0913241F0923231F0943448
:1014B00021F010924B0110924A0180914A019091C3
:1014C0004B01039709F055C020914001322F305154
:1014D000333038F0203229F0213219F0223209F06D
:1014E00040C010924B0110924A0180914C019091A2
:1014F0004D01009729F4203171F481E090E006C09D
:10150000019749F4203239F482E090E090934D0144
:1015100080934C012EC0323048F480914101809379
:101520004E018091420180934F0123C0822F80524F
:10153000823048F4809141018093510180914201B1
:101540008093500116C0223129F410924E0110925E
:101550004F010FC0223269F41092500110925101D4
:1015600008C010924B0110924A0110924D01109246
:101570004C011F910F9108950E94EF070E942C0AC1
:1015800008958091000161E00E94281280913E013F
:1015900060E00E9428128091020161E00E942812FE
:1015A00082E692E040E855E260E070E00E947F0E43
:1015B0000895CF92DF92EF92FF920F931F93CF93F4
:1015C000DF9300E010E0EE24FF24CC24DD24C0E013
:1015D000D0E00E94AB078091320190913301080F57
:1015E000191F8091340190913501E80EF91E809108
:1015F000360190913701C80ED91E219682E0C03D78
:10160000D80739F7C80160ED72E00E946315709346
:10161000390160933801C70160ED72E00E946315E3
:1016200070933B0160933A01C60160ED72E00E9445
:10163000631570933D0160933C0182E692E00E9445
:101640004710609138017091390182E692E04AE0DA
:1016500050E00E94271182E692E06CE20E943F1067
:1016600060913A0170913B0182E692E04AE050E0DD
:101670000E94271182E692E06CE20E943F10609186
:101680003C0170913D0182E692E04AE050E00E9408
:101690003A11DF91CF911F910F91FF90EF90DF9062
:1016A000CF9008950E94DC0B82E00E94CB0B8CE06F
:1016B0000E94C60B88E060E00E9428128AE061E088
:1016C0000E9428128AE061E00E94941265E070E0B6
:1016D00080E090E00E94C71181E361E00E94600712
:1016E00080E090E0A0E8B0E4809328019093290185
:1016F000A0932A01B0932B0165E070E080E090E0B8
:101700000E94C7118DE268E00E94600765E070E00A
:1017100080E090E00E94C7118EE260E80E946007BE
:1017200065E070E080E090E00E94C7118FE26FE713
:101730000E94600765E070E080E090E00E94C711C1
:101740008CE26FE00E94600765E070E080E090E06E
:101750000E94C71188E360E00E94600765E070E0C6
:1017600080E090E00E94C711089582E692E040E890
:1017700055E260E070E00E947F0E0E94BD090E9469
:10178000520B0E94D90A0E94C10A08959CB5937F0A
:10179000982B9CBD08952CB5382F33702C7F322B9D
:1017A0003CBD2DB590E09595879595958795817071
:1017B0002E7F822B8DBD08958AE061E00E949412F5
:1017C0008AE061E00E9428128CB580618CBD8CB5E6
:1017D00080648CBD8DE061E00E9428128BE061E0A6
:1017E0000E9428120895FC018091B4018C3090F47D
:1017F00080838F5F8093B401815090E0FC01EE0FF5
:10180000FF1FE80FF91FEB54FE4F88EB9BE092831C
:10181000818308958FEF80830895FC0120812C300F
:10182000B8F58181992787FD909548E850E0481BDD
:10183000590B440F551F440F551F6417750784F04B
:101840008281992787FD909548E552E0481B590B06
:10185000440F551F440F551F641775070CF4AB0157
:1018600042505040CA01AA2797FDA095BA2F880F71
:10187000991FAA1FBB1F4FB7F89430E0F901EE0F74
:10188000FF1FE20FF31FEB54FE4F928381834FBF84
:101890000895AF92BF92CF92DF92EF92FF920F9393
:1018A0001F93CF93DF93EC019B0182E060327807B6
:1018B0000CF048C077FF03C020E030E005C0653B76
:1018C000710514F024EB30E000D000D0B901882776
:1018D00077FD8095982F2981332727FD3095B8E82B
:1018E000AB2EB12CA21AB30AAA0CBB1CAA0CBB1CAF
:1018F000CC24B7FCC094DC2CEA81FF27E7FDF095EF
:1019000028E532E02E1B3F0B220F331F220F331F1F
:10191000442737FD4095542FEDB7FEB7218332831E
:101920004383548320E030E040E050E0E4EBEE2ECF
:10193000F12C012D112D0E94C7129B010F900F90C9
:101940000F900F90CE01B9010E940D0CDF91CF9145
:101950001F910F91FF90EF90DF90CF90BF90AF90CD
:101960000895CF92DF92EF92FF921F93CF93DF9370
:10197000EC01162F7A01690188818C3008F064C06F
:10198000862F61E00E942812888190E0FC01EE0F12
:10199000FF1FE80FF91FEB54FE4F1F738081807CFF
:1019A000812B808380E292E08E199F0964E070E0D1
:1019B0000E946315698380E699E08C199D0964E0B3
:1019C00070E00E9463156A83A8818A2F6CE00E94F0
:1019D0004A15682F70E0AB01440F551F460F571F83
:1019E000440F551F440F551F20E030E0C901840FFC
:1019F000951FFC01EE0FFF1FE80FF91FEB54FE4F80
:101A0000808186FD15C02F5F3F4F2C30310571F767
:101A100024C01092800082E08093810010928500A3
:101A200010928400B19A80916F00826080936F0061
:101A30008A2F90E0FC01EE0FFF1FE80FF91FEB5417
:101A4000FE4F8081806480838881DF91CF911F91D8
:101A5000FF90EF90DF90CF900895672BD1F2E8CF01
:101A600040E252E020E639E00E94B10C08951F9256
:101A70000F920FB60F9211242F933F934F935F93C2
:101A80006F937F938F939F93AF93BF93EF93FF9346
:101A90008091D90187FF05C01092850010928400C3
:101AA0002BC02091D901332727FD30958091B401B7
:101AB00090E02817390704F58091D901992787FD0F
:101AC0009095FC01EE0FFF1FE80FF91FEB54FE4F3E
:101AD000808186FF11C08091D901992787FD90955B
:101AE000FC01EE0FFF1FE80FF91FEB54FE4F808142
:101AF0008F7360E00E9494128091D9018F5F809370
:101B0000D9012091D901332727FD30958091B40167
:101B100090E0281739070CF04EC08091D9018C3025
:101B20000CF049C020918400309185008091D9014A
:101B3000992787FD9095FC01EE0FFF1FE80FF91F15
:101B4000EB54FE4F81819281280F391F3093890019
:101B5000209388008091D901992787FD9095FC01F9
:101B6000EE0FFF1FE80FF91FEB54FE4F808186FF39
:101B70002BC08091D901992787FD9095FC01EE0F2C
:101B8000FF1FE80FF91FEB54FE4F80818F7361E058
:101B90000E94941219C080E49CE905C080918400E1
:101BA00090918500049690938900809388008FEF30
:101BB0008093D90109C0809184009091850004969A
:101BC00080549C4940F3EACFFF91EF91BF91AF91D0
:101BD0009F918F917F916F915F914F913F912F9145
:101BE0000F900FBE0F901F90189508951F920F929F
:101BF0000FB60F9211242F933F934F938F939F9380
:101C0000EF93FF938091C00082FD1DC04091C600FC
:101C100020911A0230911B022F5F3F4F2F733070BB
:101C200080911C0290911D022817390771F0E091F4
:101C30001A02F0911B02E652FE4F408330931B02C2
:101C400020931A0202C08091C600FF91EF919F91EC
:101C50008F914F913F912F910F900FBE0F901F903A
:101C60001895E0916E02F0916F02E05CFF4F819158
:101C7000919120813181821B930B8F739070892BFE
:101C800011F00E94F50D08951F920F920FB60F925A
:101C900011242F933F938F939F93EF93FF93209162
:101CA0005E0230915F02809160029091610228177C
:101CB000390731F48091C1008F7D8093C10014C039
:101CC000E0916002F0916102E25EFD4F208180911F
:101CD00060029091610201968F73907090936102FF
:101CE000809360022093C600FF91EF919F918F91A6
:101CF0003F912F910F900FBE0F901F901895AF92AC
:101D0000BF92DF92EF92FF920F931F93CF93DF93D7
:101D1000EC017A018B01DD24403081EE580780E030
:101D2000680780E0780711F0DD24D39491E0A92EB4
:101D3000B12CEC89FD89DD2069F0C50108A002C045
:101D4000880F991F0A94E2F7808360E079E08DE3C1
:101D500090E005C0108260E874E88EE190E0A80190
:101D600097010E94761521503040404050405695D2
:101D700047953795279580E12030380720F0DD2002
:101D800011F0DD24D6CFE889F9893083EA89FB890F
:101D9000208319A2EE89FF89408121E030E0C9014A
:101DA0000C8C02C0880F991F0A94E2F7482B4083DD
:101DB000EE89FF894081C9010D8C02C0880F991FEF
:101DC0000A94E2F7482B4083EE89FF894081C901DC
:101DD0000E8C02C0880F991F0A94E2F7482B4083AB
:101DE000EE89FF8980810F8C02C0220F331F0A9475
:101DF000E2F7209528232083DF91CF911F910F9147
:101E0000FF90EF90DF90BF90AF900895DC011C969B
:101E1000ED91FC911D97E05CFF4F21913191808104
:101E20009181281B390B2F733070C9010895DC0193
:101E30001C96ED91FC911D97E05CFF4F2081318154
:101E4000E054F040DF01AE5BBF4F8D919C91119744
:101E50002817390719F42FEF3FEF07C08D919C9198
:101E6000E80FF91F8081282F30E0C9010895DC01B7
:101E70001C96ED91FC911D97E05CFF4F2081318114
:101E8000E054F040DF01AE5BBF4F8D919C91119704
:101E90002817390719F42FEF3FEF10C08D919C914F
:101EA0001197E80FF91F20818D919C911197019650
:101EB0008F73907011969C938E9330E0C9010895B2
:101EC000DC0191968C919197882339F05496ED918D
:101ED000FC915597808186FFF9CF91961C920895C9
:101EE000CF93DF93EC01EE85FF85E05CFF4F20810F
:101EF0003181E054F0402F5F3F4F2F733070DF018E
:101F0000AE5BBF4F8D919C91119728173907D1F384
:101F1000E05CFF4F80819181E054F040E80FF91FB1
:101F20006083EE85FF85E05CFF4F31832083EE897F
:101F3000FF89208181E090E00F8C02C0880F991FFB
:101F40000A94E2F7282B208381E089A3EC89FD899C
:101F500080818064808381E090E0DF91CF9108955B
:101F6000109265021092640288EE93E0A0E0B0E067
:101F70008093660290936702A0936802B09369020F
:101F80008CE191E090936302809362028AED91E08C
:101F900090936F0280936E028EE192E090937102B3
:101FA0008093700285EC90E09093730280937202AC
:101FB00084EC90E0909375028093740280EC90E042
:101FC000909377028093760281EC90E0909379026F
:101FD0008093780282EC90E090937B0280937A0267
:101FE00086EC90E090937D0280937C0284E0809365
:101FF0007E0283E080937F0287E08093800285E009
:102000008093810281E0809382020895CF93DF93D1
:102010000E94ED110E94B50BC1E3DEE00E94BC0AF4
:102020002097E1F30E94310EF9CFCF92DF92EF9229
:10203000FF920F931F93CF93DF937C016B018A0173
:10204000C0E0D0E00FC0D6016D916D01D701ED91D8
:10205000FC910190F081E02DC7010995C80FD91FAF
:10206000015010400115110571F7CE01DF91CF919C
:102070001F910F91FF90EF90DF90CF900895DC01BA
:10208000ED91FC910190F081E02D09950895EF927A
:10209000FF920F931F938C01DC01ED91FC91019055
:1020A000F081E02D6DE009957C01D801ED91FC9166
:1020B0000190F081E02DC8016AE009959C012E0D88
:1020C0003F1DC9011F910F91FF90EF900895CF938D
:1020D000DF93EC016115710519F420E030E00FC0C9
:1020E000DB010D900020E9F71197A61BB70BE881E3
:1020F000F9810280F381E02DAD0109959C01C901B0
:10210000DF91CF9108954F925F927F928F929F922D
:10211000AF92BF92CF92DF92EF92FF920F931F93F5
:10212000DF93CF93CDB7DEB7A1970FB6F894DEBF9C
:102130000FBECDBF2C01742ECB01223008F42AE053
:1021400019A231E2C32ED12CCC0EDD1E822E992491
:10215000AA24BB24672D752FA50194010E94761532
:1021600079018A01C801B701A50194010E942B15CC
:10217000472D461B0894C108D1084A3014F4405D2D
:1021800001C0495CF6014083E114F1040105110529
:1021900021F07E2C5F2DC801DDCFC201B6010E9467
:1021A0006710A1960FB6F894DEBF0FBECDBFCF91DA
:1021B000DF911F910F91FF90EF90DF90CF90BF9034
:1021C000AF909F908F907F905F904F900895CF92A7
:1021D000DF92EF92FF920F931F93CF93DF93EC0167
:1021E0006A017B012115310541F4E881F9810190F3
:1021F000F081E02D642F09951FC02A303105D1F4FC
:1022000077FF17C0E881F9810190F081E02D6DE240
:1022100009958C0144275527BA014C195D096E09AF
:102220007F09CE012AE00E9483109801280F391FF0
:1022300004C02AE00E9483109C01C901DF91CF9164
:102240001F910F91FF90EF90DF90CF900895EF9244
:10225000FF920F931F937B019A010027F7FC0095D3
:10226000102FB801A7010E94E7101F910F91FF9056
:10227000EF900895CF92DF92EF92FF920F931F930A
:102280006C017B019A010027F7FC0095102FB80123
:10229000A7010E94E7108C01C6010E944710080F99
:1022A000191FC8011F910F91FF90EF90DF90CF9001
:1022B00008951F920F920FB60F9211242F933F9300
:1022C0008F939F93AF93BF938091880290918902DF
:1022D000A0918A02B0918B0230918C020196A11DCF
:1022E000B11D232F2D5F2D3720F02D570196A11DF5
:1022F000B11D20938C028093880290938902A09351
:102300008A02B0938B028091840290918502A09101
:102310008602B09187020196A11DB11D80938402AF
:1023200090938502A0938602B0938702BF91AF91EC
:102330009F918F913F912F910F900FBE0F901F9003
:1023400018959FB7F89420918402309185024091AE
:1023500086025091870286B5A89B06C08F3F21F068
:102360002F5F3F4F4F4F5F4F9FBF542F432F322F51
:102370002227280F311D411D511D82E0220F331FDE
:10238000441F551F8A95D1F7B901CA010895EF92EC
:10239000FF920F931F93CF93DF937B018C010E94D9
:1023A000A111EB010EC00E94A1116C1B7D0B685E98
:1023B0007340C8F30894E108F10801091109C851F4
:1023C000DC4FE114F1040105110569F7DF91CF91AC
:1023D0001F910F91FF90EF900895789484B58260DB
:1023E00084BD84B5816084BD85B5826085BD85B5B9
:1023F000816085BDEEE6F0E0808181608083E1E868
:10240000F0E010828081826080838081816080839F
:10241000E0E8F0E0808181608083E1EBF0E08081A2
:1024200084608083E0EBF0E0808181608083EAE774
:10243000F0E08081846080838081826080838081FD
:10244000816080838081806880831092C1000895BC
:10245000CF93DF93482F50E0CA0186569F4FFC016F
:1024600034914A575F4FFA018491882369F190E0D3
:10247000880F991FFC01E859FF4FA591B491FC0109
:10248000EE58FF4FC591D491662351F42FB7F894BD
:102490008C91932F909589238C93888189230BC0ED
:1024A000623061F42FB7F8948C91932F9095892323
:1024B0008C938881832B88832FBF06C09FB7F894A5
:1024C0008C91832B8C939FBFDF91CF9108958330A4
:1024D00071F0843028F48130A1F0823021F514C0ED
:1024E0008630B1F08730D1F08430E9F404C08091B7
:1024F00080008F7703C0809180008F7D8093800063
:10250000089584B58F7702C084B58F7D84BD08950A
:102510008091B0008F778093B00008958091B000D3
:102520008F7D8093B0000895FF920F931F93F62E36
:10253000482F50E0CA0182559F4FFC012491CA01E7
:1025400086569F4FFC0114914A575F4FFA01049140
:102550000023C9F0222319F0822F0E946712E02F76
:10256000F0E0EE0FFF1FEE58FF4FA591B4919FB71B
:10257000F894FF2021F48C911095812302C08C9156
:10258000812B8C939FBF1F910F91FF9008952F92E5
:102590003F924F925F926F927F928F929F92AF92F3
:1025A000BF92CF92DF92EF92FF920F931F93DF9330
:1025B000CF93CDB7DEB73B014C0119012A016D89DC
:1025C0007E898F89988D6A197B098C099D09621A09
:1025D000730A840A950AA40193010E942B15E2183C
:1025E000F30804091509A80197010E9498152A0DFE
:1025F0003B1D4C1D5D1DB901CA01CF91DF911F919B
:102600000F91FF90EF90DF90CF90BF90AF909F9091
:102610008F907F906F905F904F903F902F90089594
:102620005058BB27AA270ED075C166D130F06BD1A8
:1026300020F031F49F3F11F41EF45BC10EF4E095DD
:10264000E7FB51C1E92F77D180F3BA17620773070F
:102650008407950718F071F49EF58FC10EF4E0958C
:102660000B2EBA2FA02D0B01B90190010C01CA014C
:10267000A0011124FF27591B99F0593F50F4503EF7
:1026800068F11A16F040A22F232F342F4427585FE9
:10269000F3CF469537952795A795F0405395C9F701
:1026A0007EF41F16BA0B620B730B840BBAF09150B9
:1026B000A1F0FF0FBB1F661F771F881FC2F70EC058
:1026C000BA0F621F731F841F48F48795779567952B
:1026D000B795F7959E3F08F0B3CF9395880F08F014
:1026E0009927EE0F979587950895D9D008F481E042
:1026F00008950CD00FC107D140F0FED030F021F486
:102700005F3F19F0F0C0511139C1F3C014D198F3F3
:102710009923C9F35523B1F3951B550BBB27AA2762
:1027200062177307840738F09F5F5F4F220F331FD4
:10273000441FAA1FA9F333D00E2E3AF0E0E830D0A0
:1027400091505040E695001CCAF729D0FE2F27D0A3
:10275000660F771F881FBB1F261737074807AB0771
:10276000B0E809F0BB0B802DBF01FF2793585F4FE6
:102770002AF09E3F510568F0B6C000C15F3FECF300
:10278000983EDCF3869577956795B795F7959F5FAB
:10279000C9F7880F911D9695879597F90895E1E0FF
:1027A000660F771F881FBB1F621773078407BA075E
:1027B00020F0621B730B840BBA0BEE1F88F7E095B9
:1027C000089504D06894B111D9C00895BCD088F0A0
:1027D0009F5790F0B92F9927B751A0F0D1F0660F0D
:1027E000771F881F991F1AF0BA95C9F712C0B13028
:1027F00081F0C3D0B1E00895C0C0672F782F88273B
:10280000B85F39F0B93FCCF3869577956795B39566
:10281000D9F73EF490958095709561957F4F8F4FD5
:102820009F4F0895E89409C097FB3EF490958095DA
:10283000709561957F4F8F4F9F4F9923A9F0F92F86
:1028400096E9BB279395F695879577956795B79504
:10285000F111F8CFFAF4BB0F11F460FF1BC06F5FEA
:102860007F4F8F4F9F4F16C0882311F096E911C0FC
:10287000772321F09EE8872F762F05C0662371F01D
:1028800096E8862F70E060E02AF09A95660F771F31
:10289000881FDAF7880F9695879597F90895990F0D
:1028A0000008550FAA0BE0E8FEEF16161706E8071A
:1028B000F907C0F012161306E407F50798F0621B3B
:1028C000730B840B950B39F40A2661F0232B242B10
:1028D000252B21F408950A2609F4A140A6958FEF2F
:1028E000811D811D089597F99F6780E870E060E081
:1028F00008959FEF80EC089500240A941616170699
:1029000018060906089500240A94121613061406E0
:1029100005060895092E0394000C11F4882352F043
:10292000BB0F40F4BF2B11F460FF04C06F5F7F4FFB
:102930008F4F9F4F089557FD9058440F551F59F0E2
:102940005F3F71F04795880F97FB991F61F09F3F9C
:1029500079F087950895121613061406551FF2CFC5
:102960004695F1DF08C0161617061806991FF1CF15
:1029700086957105610508940895E894BB2766273C
:102980007727CB0197F908958ADF08F48FEF089530
:102990000BD0C0CFB1DF28F0B6DF18F0952309F0D7
:1029A000A2CFA7CF1124EACFC6DFA0F3959FD1F322
:1029B000950F50E0551F629FF001729FBB27F00DED
:1029C000B11D639FAA27F00DB11DAA1F649F662742
:1029D000B00DA11D661F829F2227B00DA11D621F91
:1029E000739FB00DA11D621F839FA00D611D221F4B
:1029F000749F3327A00D611D231F849F600D211D2F
:102A0000822F762F6A2F11249F5750408AF0E1F0D1
:102A100088234AF0EE0FFF1FBB1F661F771F881F1A
:102A200091505040A9F79E3F510570F05CCFA6CF62
:102A30005F3FECF3983EDCF3869577956795B79505
:102A4000F795E7959F5FC1F7FE2B880F911D96952F
:102A5000879597F90895629FD001739FF001829F37
:102A6000E00DF11D649FE00DF11D929FF00D839F1D
:102A7000F00D749FF00D659FF00D9927729FB00DBA
:102A8000E11DF91F639FB00DE11DF91FBD01CF01CD
:102A900011240895991B79E004C0991F961708F036
:102AA000961B881F7A95C9F78095089587FB082E95
:102AB000062687FD819567FD6195ECDF0EF4919503
:102AC00007FC8195089597FB092E07260AD077FD0C
:102AD00004D049D006D000201AF4709561957F4F3C
:102AE0000895F6F7909581959F4F0895A1E21A2ECB
:102AF000AA1BBB1BFD010DC0AA1FBB1FEE1FFF1FA2
:102B0000A217B307E407F50720F0A21BB30BE40BF1
:102B1000F50B661F771F881F991F1A9469F7609538
:102B20007095809590959B01AC01BD01CF010895F2
:102B300097FB092E05260ED057FD04D0D7DF0AD00B
:102B4000001C38F450954095309521953F4F4F4FDC
:102B50005F4F0895F6F790958095709561957F4F3A
:102B60008F4F9F4F0895AA1BBB1B51E107C0AA1F9F
:102B7000BB1FA617B70710F0A61BB70B881F991F1E
:102B80005A95A9F780959095BC01CD010895EE0F57
:0E2B9000FF1F0590F491E02D0994F894FFCFFB
:102B9E00020001000000F041000000440000003E71
:102BAE000000F041BE6AB53F00000000700F151026
:082BBE00060F370F170F600F1F
:00000001FF
