:100000000C9463000C948B000C948B000C948B006C
:100010000C948B000C948B000C948B000C948B0034
:100020000C948B000C948B000C948B000C94F40DAE
:100030000C948B000C948B000C948B000C948B0014
:100040000C9416120C948B000C94B30E0C94010FAC
:100050000C948B000C948B000C948B000C948B00F4
:100060000C948B000C948B000000000024002700EF
:100070002A0000000000250028002B0000000000DE
:1000800023002600290004040404040404040202DA
:100090000202020203030303030301020408102007
:1000A0004080010204081020010204081020000012
:1000B0000007000201000003040600000000000029
:1000C000000024036D1011241FBECFEFD8E0DEBF67
:1000D000CDBF11E0A0E0B1E0EEEFFCE202C0059080
:1000E0000D92A232B107D9F712E0A2E2B1E001C04D
:1000F0001D92A938B107E1F710E0C6ECD0E004C0CA
:100100002297FE010E947916C23CD107C9F70E94CE
:10011000C3100C947D160C940000CF92DF92EF92E6
:10012000FF920F931F9360914901772767FD7095A8
:10013000872F972F0E94D1146B017C01609164017D
:10014000709165018091660190916701A701960108
:100150000E94CD13609364017093650180936601E2
:100160009093670104E611E0F801929182917291F7
:1001700062918F01A70196010E94CE13F80160835E
:100180007183828393831F910F91FF90EF90DF9093
:10019000CF900895CF92DF92EF92FF920F931F932B
:1001A00060914901772767FD7095872F972F0E94EF
:1001B000D1146B017C0160916401709165018091A3
:1001C000660190916701A70196010E94CD1360938B
:1001D000640170936501809366019093670104E662
:1001E00011E0F80192918291729162918F01A701C1
:1001F00096010E94CE13F8016083718382839383FA
:100200001F910F91FF90EF90DF90CF900895CF92C4
:10021000DF92EF92FF920F931F936091480177272F
:1002200067FD7095872F972F0E94D1146B017C0179
:1002300060915C0170915D0180915E0190915F0120
:10024000A70196010E94CD1360935C0170935D013C
:1002500080935E0190935F010CE511E0F8019291AB
:100260008291729162918F01A70196010E94CE1333
:10027000F80160837183828393831F910F91FF90B4
:10028000EF90DF90CF900895CF92DF92EF92FF92A0
:100290000F931F9360914801772767FD7095872F13
:1002A000972F0E94D1146B017C0160915C017091C9
:1002B0005D0180915E0190915F01A70196010E940E
:1002C000CD1360935C0170935D0180935E01909308
:1002D0005F010CE511E0F8019291829172916291B7
:1002E0008F01A70196010E94CE13F80160837183EC
:1002F000828393831F910F91FF90EF90DF90CF90B7
:1003000008958F929F92AF92BF92CF92DF92EF9219
:10031000FF920F931F93CF93DF9360914A0177274A
:1003200067FD7095872F972F0E94D11420910E01A1
:1003300030910F0140911001509111010E948515DB
:1003400020E030E040EE52E40E94851520E030E0ED
:1003500044E353E40E94361420E030E048E852E4DD
:100360000E94CE130E949E1488E5C82E81E0D82EEC
:10037000C8E7D1E04B01AA2497FCA094BA2CC50190
:10038000B4010E94D1149B01AC01F601608371831A
:1003900082839383E880F9800A811B81C801B701B9
:1003A0000E94321488239CF4C801B70120E030E099
:1003B0004CE053E40E94321488234CF4C801B70186
:1003C00020E030E040E85FE30E94CE1308C0C8019F
:1003D000B70120E030E040E85FE30E94CD1368837E
:1003E00079838A839B8384E090E0C80ED91E24968B
:1003F00098E6C91691E0D90609F0C1CFDF91CF91F7
:100400001F910F91FF90EF90DF90CF90BF90AF9032
:100410009F908F900895EF92FF920F931F930F2E4E
:10042000F0E0EF2EF0E0FF2EF0E00F2FF0E01F2FB6
:10043000F02DE0925801F092590100935A01109367
:100440005B01609178017091790180917A019091BE
:100450007B0120E030E040E85FE30E94CD13609331
:1004600078017093790180937A0190937B01E092F7
:100470005C01F0925D0100935E0110935F01609159
:100480007C0170917D0180917E0190917F0120E03F
:1004900030E040E85FE30E94CD1360937C017093ED
:1004A0007D0180937E0190937F01E0926001F09244
:1004B000610100936201109363016091800170916A
:1004C0008101809182019091830120E030E040E839
:1004D0005FE30E94CD13609380017093810180934C
:1004E000820190938301E0926401F0926501009390
:1004F000660110936701609184017091850180917C
:1005000086019091870120E030E040E85FE30E949F
:10051000CD1360938401709385018093860190933D
:1005200087011F910F91FF90EF900895CF92DF9276
:10053000EF92FF920F931F93CF93DF938091480127
:1005400018161CF40E94070104C0882311F00E94B1
:1005500044018091490118161CF40E948D0004C0CA
:10056000882311F00E94CA0080914A0118161CF4D9
:100570000E94810104C0882311F00E940B02C8E58B
:10058000D1E098E7C92E91E0D92EE880F9800A8160
:100590001B81C801B70120E030E048E852E40E9426
:1005A000321488232CF480E090E0A8E8B2E40EC076
:1005B000C801B70120E030E044E353E40E94811514
:1005C000181644F480E090E0A4E3B3E488839983B0
:1005D000AA83BB83F601E080F18002811381C80108
:1005E000B70120E030E046E952E40E94321488234B
:1005F0002CF480E090E0A6E9B2E40EC0C801B70197
:1006000020E030E04CE053E40E94811518164CF4D1
:1006100080E090E0ACE0B3E4F60180839183A283B4
:10062000B383249684E090E0C80ED91E91E0C836CA
:10063000D90709F0AACFDF91CF911F910F91FF90B9
:10064000EF90DF90CF900895EF92FF920F931F935A
:100650000CE411E0C8010E94B00CC80103960E948E
:10066000B00CC80106960E94B00CC80109960E9401
:10067000B00CE090A001F090A1010091A2011091B6
:10068000A301C801B70120E030E040E85EE30E942A
:1006900085156093A4017093A5018093A6019093A2
:1006A000A701C801B70126E636E646E65FE30E94E9
:1006B00085156093A8017093A9018093AA01909376
:1006C000AB01809108019091090168EC70E00E94F3
:1006D00013169B0153E0660F771F5A95E1F7220F1F
:1006E000331F620F731F882777FD8095982F0E9414
:1006F000D1146093AC017093AD018093AE019093DF
:10070000AF011F910F91FF90EF9008952F923F92AC
:100710004F925F926F927F928F929F92AF92BF9211
:10072000CF92DF92EF92FF920F931F93DF93CF93BD
:10073000CDB7DEB728970FB6F894DEBF0FBECDBF9A
:100740001B012C010E949E14672B19F5E0908C016F
:10075000F0908D0100918E0110918F01C801B701B9
:1007600020E030E040E050E00E94811518161CF4B3
:10077000C801B70139C0C801B70120E030E040E04E
:1007800050E00E94321488230CF03CC0C801B7012D
:1007900012C0C201B10120E030E040E050E00E9410
:1007A000811518167CF460918C0170918D018091F7
:1007B0008E0190918F0120E030E040E85FE30E94DD
:1007C000CE1318C0C201B10120E030E040E050E09B
:1007D0000E9432148823B4F460918C0170918D01D1
:1007E00080918E0190918F0120E030E040E85FE33E
:1007F0000E94CD1360938C0170938D0180938E01C4
:1008000090938F01C201B101209194013091950123
:1008100040919601509197010E94CD130E949E1421
:100820003B014C0120929401309295014092960137
:1008300050929701C201B10120919C0130919D011C
:1008400040919E0150919F010E94CE135B016C016B
:1008500060939C0170939D0180939E0190939F01F2
:100860008091800190918101A0918201B0918301DA
:100870008D839E83AF83B887809184019091850199
:10088000A0918601B091870189839A83AB83BC8351
:10089000C201B1012091A0013091A1014091A201BA
:1008A0005091A3010E9485157B018C01C601B50101
:1008B0002091A4013091A5014091A6015091A7017A
:1008C0000E9485159B01AC01C801B7010E94CE139F
:1008D0007B018C01B301882777FD8095982F0E94BA
:1008E000D1142091A8013091A9014091AA01509101
:1008F000AB010E9485159B01AC01C801B7010E94A4
:10090000CE137B018C016D817E818F819885298139
:100910003A814B815C810E94CD1320E030E040E0C1
:100920005FE30E9485159B01AC01C801B7010E94DD
:10093000CE137B018C0120916001309161014091C7
:100940006201509163010E94CE131B012C01609340
:1009500060017093610180936201909363016091E3
:100960006401709165018091660190916701A80111
:1009700097010E94CD136093640170936501809389
:1009800066019093670120E030E048E852E40E945D
:100990003214882364F480E090E0A8E8B2E4809305
:1009A000640190936501A0936601B0936701C20151
:1009B000B10120E030E044E353E40E9481151816B1
:1009C00064F480E090E0A4E3B3E48093600190934A
:1009D0006101A0936201B093630160916001709125
:1009E0006101809162019091630120E030E048E86C
:1009F00052E40E943214882364F480E090E0A8E876
:100A0000B2E48093600190936101A0936201B0937E
:100A1000630160916401709165018091660190911C
:100A2000670120E030E044E353E40E94811518168A
:100A300064F480E090E0A4E3B3E4809364019093D5
:100A40006501A0936601B0936701E0908C01F0907E
:100A50008D0100918E0110918F01C801B70120E036
:100A600030E040E251E40E948115181664F5E090F0
:100A7000AC01F090AD010091AE011091AF016D811C
:100A80007E818F819885A80197010E94CE13609383
:100A90008001709381018093820190938301698129
:100AA0007A818B819C81A80197010E94CD1360936C
:100AB00084017093850180938601909387018091D2
:100AC000000161E035C0C801B70120E030E040E23C
:100AD00051EC0E9432148823CCF5E090AC01F090E8
:100AE000AD010091AE011091AF016D817E818F81CA
:100AF0009885A80197010E94CD136093800170939F
:100B00008101809382019093830169817A818B8135
:100B10009C81A80197010E94CE1360938401709379
:100B2000850180938601909387018091000160E0A8
:100B30000E94511380E090E0A0E0B0E080938C012F
:100B400090938D01A0938E01B0938F0128960FB6DC
:100B5000F894DEBF0FBECDBFCF91DF911F910F91F3
:100B6000FF90EF90DF90CF90BF90AF909F908F90CD
:100B70007F906F905F904F903F902F9008952F92AD
:100B80003F924F925F926F927F928F929F92AF921D
:100B9000BF92CF92DF92EF92FF920F931F93DF935A
:100BA000CF93CDB7DEB728970FB6F894DEBF0FBE50
:100BB000CDBF1B012C010E949E14672B19F5E090FC
:100BC0008801F090890100918A0110918B01C80180
:100BD000B70120E030E040E050E00E948115181697
:100BE0001CF4C801B70139C0C801B70120E030E0EA
:100BF00040E050E00E94321488230CF03CC0C80151
:100C0000B70112C0C201B10120E030E040E050E085
:100C10000E94811518167CF46091880170918901F9
:100C200080918A0190918B0120E030E040E85FE301
:100C30000E94CE1318C0C201B10120E030E040E0B4
:100C400050E00E9432148823B4F4609188017091BE
:100C5000890180918A0190918B0120E030E040E889
:100C60005FE30E94CD1360938801709389018093A4
:100C70008A0190938B01C201B101209190013091C2
:100C8000910140919201509193010E94CD130E94D5
:100C90009E143B014C0120929001309291014092B0
:100CA000920150929301C201B101209198013091BB
:100CB000990140919A0150919B010E94CE135B01D2
:100CC0006C01609398017093990180939A019093BD
:100CD0009B018091780190917901A0917A01B09166
:100CE0007B018D839E83AF83B88780917C01909137
:100CF0007D01A0917E01B0917F0189839A83AB83AE
:100D0000BC83C201B1012091A0013091A1014091A9
:100D1000A2015091A3010E9485157B018C01C6019F
:100D2000B5012091A4013091A5014091A6015091F7
:100D3000A7010E9485159B01AC01C801B7010E9463
:100D4000CE137B018C01B301882777FD8095982F06
:100D50000E94D1142091A8013091A9014091AA01CB
:100D60005091AB010E9485159B01AC01C801B701F0
:100D70000E94CE137B018C016D817E818F819885CD
:100D800029813A814B815C810E94CD1320E030E0C3
:100D900040E05FE30E9485159B01AC01C801B701EB
:100DA0000E94CE137B018C01209158013091590192
:100DB00040915A0150915B010E94CE131B012C01FE
:100DC000609358017093590180935A0190935B018D
:100DD00060915C0170915D0180915E0190915F0175
:100DE000A80197010E94CD1360935C0170935D018F
:100DF00080935E0190935F0120E030E048E852E488
:100E00000E943214882364F480E090E0A8E8B2E401
:100E100080935C0190935D01A0935E01B0935F01AC
:100E2000C201B10120E030E044E353E40E948115A7
:100E3000181664F480E090E0A4E3B3E480935801D2
:100E400090935901A0935A01B0935B0160915801AE
:100E50007091590180915A0190915B0120E030E03E
:100E600048E852E40E943214882364F480E090E061
:100E7000A8E8B2E48093580190935901A0935A01D5
:100E8000B0935B0160915C0170915D0180915E01A6
:100E900090915F0120E030E044E353E40E9481152B
:100EA000181664F480E090E0A4E3B3E480935C015E
:100EB00090935D01A0935E01B0935F01E090880183
:100EC000F090890100918A0110918B01C801B7014E
:100ED00020E030E040E251E40E948115181664F5EC
:100EE000E090AC01F090AD010091AE011091AF0126
:100EF0006D817E818F819885A80197010E94CE1314
:100F0000609378017093790180937A0190937B01CB
:100F100069817A818B819C81A80197010E94CD1300
:100F200060937C0170937D0180937E0190937F019B
:100F30008091000161E035C0C801B70120E030E0D8
:100F400040E251EC0E9432148823CCF5E090AC01D1
:100F5000F090AD010091AE011091AF016D817E81E5
:100F60008F819885A80197010E94CD136093780125
:100F70007093790180937A0190937B0169817A81E2
:100F80008B819C81A80197010E94CE1360937C0104
:100F900070937D0180937E0190937F018091000189
:100FA00060E00E94511380E090E0A0E0B0E0809308
:100FB000880190938901A0938A01B0938B012896B0
:100FC0000FB6F894DEBF0FBECDBFCF91DF911F915A
:100FD0000F91FF90EF90DF90CF90BF90AF909F90D8
:100FE0008F907F906F905F904F903F902F900895DB
:100FF0000F931F93182F062F8AE060E00E94511371
:101000001EBD0DB407FEFDCF8EB50EBD0DB407FE9F
:10101000FDCF8EB58AE061E00E9451131F910F91C0
:101020000895EF92FF921F93CF93DF93EB017A0124
:10103000182F10686230710514F0182F106C8AE0B8
:1010400060E00E9451131EBD0DB407FEFDCF8EB5AA
:1010500020E030E00BC01EBC0DB407FEFDCF8EB506
:10106000F701E20FF31F80832F5F3F4F2C173D07DF
:1010700094F38AE061E00E945113DF91CF911F91B8
:10108000FF90EF90089582E366E070E046E251E061
:101090000E94110880912701992787FD9095837000
:1010A0009070982F882720912601332727FD3095AF
:1010B000822B932B90932D0180932C0180912901F9
:1010C000992787FD909583709070982F882720919D
:1010D0002801332727FD3095822B932B90932F01E6
:1010E00080932E0180912B01992787FD9095837025
:1010F0009070982F882720912A01332727FD30955B
:10110000822B932B90933101809330010895EF92BD
:10111000FF920F931F93CF93DF938CE491E063E0F2
:1011200070E00E94ED0D8FE491E065E070E00E94B8
:10113000ED0D82E591E066E070E00E94ED0D85E541
:1011400091E069E070E00E94ED0D80E090E0A8E1A0
:10115000B2E48093780190937901A0937A01B093DF
:101160007B018093580190935901A0935A01B09349
:101170005B0120E03FEF4FE757E420936801309395
:10118000690140936A0150936B0180937C019093B5
:101190007D01A0937E01B0937F0180935C019093C9
:1011A0005D01A0935E01B0935F0120936C013093C9
:1011B0006D0140936E0150936F0180938001909375
:1011C0008101A0938201B093830180936001909389
:1011D0006101A0936201B093630120937001309389
:1011E0007101409372015093730180938401909335
:1011F0008501A0938601B093870180936401909349
:101200006501A0936601B093670120937401309348
:1012100075014093760150937701A8E7EA2EA1E08B
:10122000FA2EC0E0D0E08E01000F111F0C0F1D1F21
:10123000045B1E4FF70161917191819191917F0142
:101240000E949E149B01AC01C801B9010E94060DC9
:101250002196C430D10539F7DF91CF911F910F91BD
:10126000FF90EF9008950F931F938EE592E00E94F8
:10127000C30F892B49F100914401109145018EE57E
:1012800092E00E94F40F065C1E4FF801808380916B
:10129000440190914501019690934501809344014A
:1012A000019791F490913A01892F8051833060F039
:1012B000903251F0913241F0923231F0943421F079
:1012C0001092450110924401809144019091450192
:1012D000039709F055C020913A01322F3051333035
:1012E00038F0203229F0213219F0223209F040C0C2
:1012F000109245011092440180914601909147015E
:10130000009729F4203171F481E090E006C0019744
:1013100049F4203239F482E090E0909347018093C1
:1013200046012EC0323048F480913B018093480141
:1013300080913C018093490123C0822F80528230EA
:1013400048F480913B0180934B0180913C01809354
:101350004A0116C0223129F4109248011092490125
:101360000FC0223269F410924A0110924B0108C05A
:1013700010924501109244011092470110924601CB
:101380001F910F9108958091000161E00E94E51284
:101390008091380160E00E94E5128091020161E0D5
:1013A0000E94E5128EE592E040E855E260E070E0D0
:1013B0000E943C0F0895CF92DF92EF92FF920F931D
:1013C0001F93CF93DF9300E010E0EE24FF24CC24A2
:1013D000DD24C0E0D0E00E94430880912C01909170
:1013E0002D01080F191F80912E0190912F01E80EF9
:1013F000F91E8091300190913101C80ED91E2196BD
:1014000081E0C836D80739F7C80168E671E00E9464
:1014100013167093330160933201C70168E671E0DF
:101420000E9413167093350160933401C60168E67B
:1014300071E00E94131670933701609336018EE5B8
:1014400092E00E94041160913201709133018EE5A7
:1014500092E04AE050E00E94E4118EE592E06CE2F6
:101460000E94FC1060913401709135018EE592E08C
:101470004AE050E00E94E4118EE592E06CE20E94A6
:10148000FC1060913601709137018EE592E04AE0E0
:1014900050E00E94F711DF91CF911F910F91FF90C3
:1014A000EF90DF90CF9008952F923F924F925F92EE
:1014B0006F927F928F929F92AF92BF92CF92DF9264
:1014C000EF92FF920F931F93DF93CF93CDB7DEB7C9
:1014D00028970FB6F894DEBF0FBECDBF80914601AE
:1014E00090914701009709F069C080E090E0A8E181
:1014F000B2E48093780190937901A0937A01B0933C
:101500007B018093580190935901A0935A01B093A5
:101510005B0120E03FEF4FE757E4209368013093F1
:10152000690140936A0150936B0180937C01909311
:101530007D01A0937E01B0937F0180935C01909325
:101540005D01A0935E01B0935F0120936C01309325
:101550006D0140936E0150936F01809380019093D1
:101560008101A0938201B0938301809360019093E5
:101570006101A0936201B0936301209370013093E5
:101580007101409372015093730180938401909391
:101590008501A0938601B0938701809364019093A5
:1015A0006501A0936601B0936701209374013093A5
:1015B0007501409376015093770121C0019759F549
:1015C0008091000160E00E94511380E090E020E0F3
:1015D00030E048E852E4FC01E858FE4F20833183B4
:1015E00042835383FC01E85AFE4F208331834283B8
:1015F000538304968031910571F70E94DB0988E5D9
:10160000482E81E0582E08E6802E01E0902E7201CF
:101610006624772429C00E9496020E9443086091A4
:101620002C0170912D012091320130913301621B08
:10163000730B882777FD8095982F0E94D1140E9404
:10164000BF0560912E0170912F01209134013091DE
:101650003501621B730B882777FD8095982F0E94B8
:10166000D1140E948603CBCFD7016D917D918D91CE
:101670009C910E949E145B016C01F4016081718158
:10168000828193810E949E14A616B706A1F0C30121
:10169000880F991F860D971D845B9E4FB5010E9490
:1016A000060DF70180819181A281B381F4018083CD
:1016B0009183A283B3830894611C711C84E090E041
:1016C000E80EF91E880E991E94E06916710461F601
:1016D00060900401709005018090060190900701D0
:1016E000D401C301B0588D839E83AF83B8878091A6
:1016F0000A0190910B01A0910C01B0910D01898319
:101700009A83AB83BC83B8E72B2EB1E03B2E80914C
:1017100046019091470102970CF463C0D101AD904E
:10172000BD90CD90DC90F2016081718182819381C6
:10173000A60195010E94CD13A40193010E94811579
:10174000181664F4C601B501A40193010E94CE13DA
:10175000D2016D937D938D939C931397F2016081D9
:10176000718182819381A60195010E94CD132D8103
:101770003E814F8158850E943214882364F4C6014B
:10178000B501A40193010E94CD13D2016D937D9305
:101790008D939C931397F201E080F1800281138175
:1017A000C801B701A60195010E94CD1329813A8194
:1017B0004B815C810E9436149B01AC01C801B701CA
:1017C0000E94CD13D2016D937D938D939D932D0136
:1017D000E4E0F0E02E0E3F1EF1E0A836BF0709F06E
:1017E0009DCF28960FB6F894DEBF0FBECDBFCF9128
:1017F000DF911F910F91FF90EF90DF90CF90BF90FE
:10180000AF909F908F907F906F905F904F903F90A0
:101810002F9008950E94540A0E94330908950E944F
:10182000990C82E00E94880C8CE00E94830C88E076
:1018300060E00E94E5128AE061E00E94E5128AE021
:1018400061E00E94511365E070E080E090E00E944A
:10185000841281E363E00E94F80780E090E0A0E852
:10186000B1E48093220190932301A0932401B093CB
:10187000250165E070E080E090E00E9484128DE236
:1018800068E00E94F80765E070E080E090E00E9468
:1018900084128EE260E80E94F80765E070E080E064
:1018A00090E00E9484128FE26FE70E94F80765E0E3
:1018B00070E080E090E00E9484128CE26FE00E9471
:1018C000F80765E070E080E090E00E94841288E311
:1018D00060E00E94F80765E070E080E090E00E9420
:1018E000841208958EE592E040E855E260E070E0F1
:1018F0000E943C0F0E9487080E940F0C0E94DB0987
:101900000E94C30908959CB5937F982B9CBD0895B0
:101910002CB5382F33702C7F322B3CBD2DB590E089
:10192000959587959595879581702E7F822B8DBD96
:1019300008958AE061E00E9451138AE061E00E940C
:10194000E5128CB580618CBD8CB580648CBD8DE05A
:1019500061E00E94E5128BE061E00E94E5120895CB
:10196000FC018091B0018C3090F480838F5F809374
:10197000B001815090E0FC01EE0FFF1FE80FF91F4E
:10198000EF54FE4F88EB9BE09283818308958FEFA5
:1019900080830895FC0120812C30B8F5818199273E
:1019A00087FD909548E850E0481B590B440F551FA0
:1019B000440F551F6417750784F08281992787FDAE
:1019C000909548E552E0481B590B440F551F440FB2
:1019D000551F641775070CF4AB0142505040CA0103
:1019E000AA2797FDA095BA2F880F991FAA1FBB1F82
:1019F0004FB7F89430E0F901EE0FFF1FE20FF31F2D
:101A0000EF54FE4F928381834FBF0895AF92BF92F0
:101A1000CF92DF92EF92FF920F931F93CF93DF93BA
:101A2000EC019B0182E0603278070CF048C077FF40
:101A300003C020E030E005C0653B710514F024EBE5
:101A400030E000D000D0B901882777FD8095982F2D
:101A50002981332727FD3095B8E8AB2EB12CA21A87
:101A6000B30AAA0CBB1CAA0CBB1CCC24B7FCC094A8
:101A7000DC2CEA81FF27E7FDF09528E532E02E1BFC
:101A80003F0B220F331F220F331F442737FD409592
:101A9000542FEDB7FEB7218332834383548320E074
:101AA00030E040E050E0E4EBEE2EF12C012D112D62
:101AB0000E9484139B010F900F900F900F90CE0106
:101AC000B9010E94CA0CDF91CF911F910F91FF9035
:101AD000EF90DF90CF90BF90AF900895CF92DF92BC
:101AE000EF92FF921F93CF93DF93EC01162F7A01B1
:101AF000690188818C3008F064C0862F61E00E9403
:101B0000E512888190E0FC01EE0FFF1FE80FF91F3E
:101B1000EF54FE4F1F738081807C812B808380E295
:101B200092E08E199F0964E070E00E9413166983A9
:101B300080E699E08C199D0964E070E00E9413161C
:101B40006A83A8818A2F6CE00E940716682F70E0D4
:101B5000AB01440F551F460F571F440F551F440F2D
:101B6000551F20E030E0C901840F951FFC01EE0FE6
:101B7000FF1FE80FF91FEF54FE4F808186FD15C04F
:101B80002F5F3F4F2C30310571F724C01092800039
:101B900082E0809381001092850010928400B19AB7
:101BA00080916F00826080936F008A2F90E0FC012B
:101BB000EE0FFF1FE80FF91FEF54FE4F8081806486
:101BC00080838881DF91CF911F91FF90EF90DF900C
:101BD000CF900895672BD1F2E8CF40E252E020E6A3
:101BE00039E00E946E0D08951F920F920FB60F926A
:101BF00011242F933F934F935F936F937F938F9312
:101C00009F93AF93BF93EF93FF938091D50187FF8D
:101C100005C010928500109284002BC02091D50140
:101C2000332727FD30958091B00190E028173907C0
:101C300004F58091D501992787FD9095FC01EE0F61
:101C4000FF1FE80FF91FEF54FE4F808186FF11C080
:101C50008091D501992787FD9095FC01EE0FFF1F1C
:101C6000E80FF91FEF54FE4F80818F7360E00E94F0
:101C700051138091D5018F5F8093D5012091D501BB
:101C8000332727FD30958091B00190E02817390760
:101C90000CF04EC08091D5018C300CF049C02091E1
:101CA0008400309185008091D501992787FD90951A
:101CB000FC01EE0FFF1FE80FF91FEF54FE4F81816B
:101CC0009281280F391F30938900209388008091DA
:101CD000D501992787FD9095FC01EE0FFF1FE80FB6
:101CE000F91FEF54FE4F808186FF2BC08091D501F4
:101CF000992787FD9095FC01EE0FFF1FE80FF91F54
:101D0000EF54FE4F80818F7361E00E94511319C020
:101D100080E49CE905C08091840090918500049640
:101D200090938900809388008FEF8093D50109C03C
:101D30008091840090918500049680549C4940F3E2
:101D4000EACFFF91EF91BF91AF919F918F917F91DA
:101D50006F915F914F913F912F910F900FBE0F9018
:101D60001F90189508951F920F920FB60F9211248D
:101D70002F933F934F938F939F93EF93FF93809174
:101D8000C00082FD1DC04091C60020911602309116
:101D900017022F5F3F4F2F73307080911802909180
:101DA00019022817390771F0E0911602F091170215
:101DB000EA52FE4F4083309317022093160202C06E
:101DC0008091C600FF91EF919F918F914F913F912C
:101DD0002F910F900FBE0F901F901895E0916A02FF
:101DE000F0916B02E05CFF4F8191919120813181F4
:101DF000821B930B8F739070892B11F00E94B20E8F
:101E000008951F920F920FB60F9211242F933F93B4
:101E10008F939F93EF93FF9320915A0230915B022F
:101E200080915C0290915D022817390731F480910E
:101E3000C1008F7D8093C10014C0E0915C02F091DD
:101E40005D02E65EFD4F208180915C0290915D0213
:101E500001968F73907090935D0280935C02209343
:101E6000C600FF91EF919F918F913F912F910F901D
:101E70000FBE0F901F901895AF92BF92DF92EF9216
:101E8000FF920F931F93CF93DF93EC017A018B01A5
:101E9000DD24403081EE580780E0680780E0780755
:101EA00011F0DD24D39491E0A92EB12CEC89FD89A9
:101EB000DD2069F0C50108A002C0880F991F0A94AF
:101EC000E2F7808360E079E08DE390E005C0108266
:101ED00060E874E88EE190E0A80197010E94261660
:101EE00021503040404050405695479537952795B2
:101EF00080E12030380720F0DD2011F0DD24D6CF3E
:101F0000E889F9893083EA89FB89208319A2EE895F
:101F1000FF89408121E030E0C9010C8C02C0880FAC
:101F2000991F0A94E2F7482B4083EE89FF8940818C
:101F3000C9010D8C02C0880F991F0A94E2F7482B43
:101F40004083EE89FF894081C9010E8C02C0880F51
:101F5000991F0A94E2F7482B4083EE89FF8980811C
:101F60000F8C02C0220F331F0A94E2F7209528231A
:101F70002083DF91CF911F910F91FF90EF90DF9021
:101F8000BF90AF900895DC011C96ED91FC911D97D8
:101F9000E05CFF4F2191319180819181281B390BA9
:101FA0002F733070C9010895DC011C96ED91FC91EE
:101FB0001D97E05CFF4F20813181E054F040DF014C
:101FC000AE5BBF4F8D919C9111972817390719F47B
:101FD0002FEF3FEF07C08D919C91E80FF91F808193
:101FE000282F30E0C9010895DC011C96ED91FC9189
:101FF0001D97E05CFF4F20813181E054F040DF010C
:10200000AE5BBF4F8D919C9111972817390719F43A
:102010002FEF3FEF10C08D919C911197E80FF91FA2
:1020200020818D919C91119701968F7390701196DC
:102030009C938E9330E0C9010895DC0191968C91B8
:102040009197882339F05496ED91FC9155978081B2
:1020500086FFF9CF91961C920895CF93DF93EC0100
:10206000EE85FF85E05CFF4F20813181E054F04038
:102070002F5F3F4F2F733070DF01AE5BBF4F8D91ED
:102080009C91119728173907D1F3E05CFF4F8081AD
:102090009181E054F040E80FF91F6083EE85FF85E1
:1020A000E05CFF4F31832083EE89FF89208181E04E
:1020B00090E00F8C02C0880F991F0A94E2F7282B3A
:1020C000208381E089A3EC89FD89808180648083FD
:1020D00081E090E0DF91CF9108951092610210921B
:1020E000600288EE93E0A0E0B0E0809362029093FB
:1020F0006302A0936402B093650286E191E090933D
:102100005F0280935E0286ED91E090936B02809374
:102110006A028AE192E090936D0280936C0285ECF2
:1021200090E090936F0280936E0284EC90E0909325
:1021300071028093700280EC90E090937302809320
:10214000720281EC90E0909375028093740282ECAD
:1021500090E0909377028093760286EC90E09093E3
:1021600079028093780284E080937A0283E08093FE
:102170007B0287E080937C0285E080937D0281E092
:1021800080937E020895CF93DF930E94AA120E944B
:10219000720CCEEEDEE00E940A0C2097E1F30E9462
:1021A000EE0EF9CFCF92DF92EF92FF920F931F9333
:1021B000CF93DF937C016B018A01C0E0D0E00FC0B8
:1021C000D6016D916D01D701ED91FC910190F081E7
:1021D000E02DC7010995C80FD91F01501040011506
:1021E000110571F7CE01DF91CF911F910F91FF90F3
:1021F000EF90DF90CF900895DC01ED91FC9101907C
:10220000F081E02D09950895EF92FF920F931F93AF
:102210008C01DC01ED91FC910190F081E02D6DE0ED
:1022200009957C01D801ED91FC910190F081E02DA0
:10223000C8016AE009959C012E0D3F1DC9011F913F
:102240000F91FF90EF900895CF93DF93EC0161150C
:10225000710519F420E030E00FC0DB010D90002083
:10226000E9F71197A61BB70BE881F9810280F3818A
:10227000E02DAD0109959C01C901DF91CF91089531
:102280004F925F927F928F929F92AF92BF92CF9226
:10229000DF92EF92FF920F931F93DF93CF93CDB70F
:1022A000DEB7A1970FB6F894DEBF0FBECDBF2C01ED
:1022B000742ECB01223008F42AE019A231E2C32E99
:1022C000D12CCC0EDD1E822E9924AA24BB24672D8E
:1022D000752FA50194010E94261679018A01C80173
:1022E000B701A50194010E94E815472D461B0894EB
:1022F000C108D1084A3014F4405D01C0495CF601C0
:102300004083E114F1040105110521F07E2C5F2DBD
:10231000C801DDCFC201B6010E942411A1960FB6FB
:10232000F894DEBF0FBECDBFCF91DF911F910F910B
:10233000FF90EF90DF90CF90BF90AF909F908F90E5
:102340007F905F904F900895CF92DF92EF92FF922F
:102350000F931F93CF93DF93EC016A017B0121154B
:10236000310541F4E881F9810190F081E02D642F7D
:1023700009951FC02A303105D1F477FF17C0E881D5
:10238000F9810190F081E02D6DE209958C014427DF
:102390005527BA014C195D096E097F09CE012AE063
:1023A0000E9440119801280F391F04C02AE00E94A2
:1023B00040119C01C901DF91CF911F910F91FF90B6
:1023C000EF90DF90CF900895EF92FF920F931F93BD
:1023D0007B019A010027F7FC0095102FB801A70197
:1023E0000E94A4111F910F91FF90EF900895CF923A
:1023F000DF92EF92FF920F931F936C017B019A0182
:102400000027F7FC0095102FB801A7010E94A41126
:102410008C01C6010E940411080F191FC8011F91E9
:102420000F91FF90EF90DF90CF9008951F920F9241
:102430000FB60F9211242F933F938F939F93AF93D7
:10244000BF938091840290918502A0918602B09101
:102450008702309188020196A11DB11D232F2D5FA7
:102460002D3720F02D570196A11DB11D2093880214
:102470008093840290938502A0938602B093870292
:102480008091800290918102A0918202B09183029A
:102490000196A11DB11D8093800290938102A093AB
:1024A0008202B0938302BF91AF919F918F913F9130
:1024B0002F910F900FBE0F901F9018959FB7F89413
:1024C00020918002309181024091820250918302DA
:1024D00086B5A89B06C08F3F21F02F5F3F4F4F4F1F
:1024E0005F4F9FBF542F432F322F2227280F311DBC
:1024F000411D511D82E0220F331F441F551F8A9535
:10250000D1F7B901CA010895EF92FF920F931F937B
:10251000CF93DF937B018C010E945E12EB010EC012
:102520000E945E126C1B7D0B685E7340C8F30894BA
:10253000E108F10801091109C851DC4FE114F10467
:102540000105110569F7DF91CF911F910F91FF9060
:10255000EF900895789484B5826084BD84B58160DD
:1025600084BD85B5826085BD85B5816085BDEEE69B
:10257000F0E0808181608083E1E8F0E0108280817A
:1025800082608083808181608083E0E8F0E08081E8
:1025900081608083E1EBF0E0808184608083E0EB08
:1025A000F0E0808181608083EAE7F0E080818460F0
:1025B000808380818260808380818160808380814C
:1025C000806880831092C1000895CF93DF93482FD5
:1025D00050E0CA0186569F4FFC0134914A575F4F25
:1025E000FA018491882369F190E0880F991FFC011A
:1025F000E859FF4FA591B491FC01EE58FF4FC591EA
:10260000D491662351F42FB7F8948C91932F909521
:1026100089238C93888189230BC0623061F42FB7A2
:10262000F8948C91932F909589238C938881832B98
:1026300088832FBF06C09FB7F8948C91832B8C930F
:102640009FBFDF91CF910895833071F0843028F4DB
:102650008130A1F0823021F514C08630B1F087308E
:10266000D1F08430E9F404C0809180008F7703C0FA
:10267000809180008F7D80938000089584B58F774E
:1026800002C084B58F7D84BD08958091B0008F779E
:102690008093B00008958091B0008F7D8093B0004A
:1026A0000895FF920F931F93F62E482F50E0CA0112
:1026B00082559F4FFC012491CA0186569F4FFC0111
:1026C00014914A575F4FFA0104910023C9F0222365
:1026D00019F0822F0E942413E02FF0E0EE0FFF1F6D
:1026E000EE58FF4FA591B4919FB7F894FF2021F4C5
:1026F0008C911095812302C08C91812B8C939FBF6C
:102700001F910F91FF9008952F923F924F925F92E9
:102710006F927F928F929F92AF92BF92CF92DF92F1
:10272000EF92FF920F931F93DF93CF93CDB7DEB756
:102730003B014C0119012A016D897E898F89988D91
:102740006A197B098C099D09621A730A840A950A21
:10275000A40193010E94E815E218F3080409150981
:10276000A80197010E9448162A0D3B1D4C1D5D1DB6
:10277000B901CA01CF91DF911F910F91FF90EF90A6
:10278000DF90CF90BF90AF909F908F907F906F9091
:102790005F904F903F902F9008955058BB27AA27E5
:1027A0000ED075C166D130F06BD120F031F49F3F6F
:1027B00011F41EF45BC10EF4E095E7FB51C1E92F63
:1027C00077D180F3BA17620773078407950718F06B
:1027D00071F49EF58FC10EF4E0950B2EBA2FA02D4B
:1027E0000B01B90190010C01CA01A0011124FF27BE
:1027F000591B99F0593F50F4503E68F11A16F040B9
:10280000A22F232F342F4427585FF3CF46953795B7
:102810002795A795F0405395C9F77EF41F16BA0B7C
:10282000620B730B840BBAF09150A1F0FF0FBB1F2A
:10283000661F771F881FC2F70EC0BA0F621F731F73
:10284000841F48F4879577956795B795F7959E3FD0
:1028500008F0B3CF9395880F08F09927EE0F97955E
:1028600087950895D9D008F481E008950CD00FC160
:1028700007D140F0FED030F021F45F3F19F0F0C0F6
:10288000511139C1F3C014D198F39923C9F35523D9
:10289000B1F3951B550BBB27AA2762177307840753
:1028A00038F09F5F5F4F220F331F441FAA1FA9F309
:1028B00033D00E2E3AF0E0E830D091505040E695FB
:1028C000001CCAF729D0FE2F27D0660F771F881F5C
:1028D000BB1F261737074807AB07B0E809F0BB0B4B
:1028E000802DBF01FF2793585F4F2AF09E3F51056F
:1028F00068F0B6C000C15F3FECF3983EDCF386950C
:1029000077956795B795F7959F5FC9F7880F911DE4
:102910009695879597F90895E1E0660F771F881FD0
:10292000BB1F621773078407BA0720F0621B730B83
:10293000840BBA0BEE1F88F7E095089504D06894D5
:10294000B111D9C00895BCD088F09F5790F0B92F2D
:102950009927B751A0F0D1F0660F771F881F991FF4
:102960001AF0BA95C9F712C0B13081F0C3D0B1E006
:102970000895C0C0672F782F8827B85F39F0B93F16
:10298000CCF3869577956795B395D9F73EF49095F6
:102990008095709561957F4F8F4F9F4F0895E89474
:1029A00009C097FB3EF490958095709561957F4F97
:1029B0008F4F9F4F9923A9F0F92F96E9BB27939545
:1029C000F695879577956795B795F111F8CFFAF455
:1029D000BB0F11F460FF1BC06F5F7F4F8F4F9F4F86
:1029E00016C0882311F096E911C0772321F09EE8E4
:1029F000872F762F05C0662371F096E8862F70E04A
:102A000060E02AF09A95660F771F881FDAF7880F23
:102A10009695879597F90895990F0008550FAA0B79
:102A2000E0E8FEEF16161706E807F907C0F01216E1
:102A30001306E407F50798F0621B730B840B950BE4
:102A400039F40A2661F0232B242B252B21F4089539
:102A50000A2609F4A140A6958FEF811D811D0895D6
:102A600097F99F6780E870E060E008959FEF80EC41
:102A7000089500240A9416161706180609060895E4
:102A800000240A9412161306140605060895092E4A
:102A90000394000C11F4882352F0BB0F40F4BF2BB9
:102AA00011F460FF04C06F5F7F4F8F4F9F4F0895F9
:102AB00057FD9058440F551F59F05F3F71F04795EF
:102AC000880F97FB991F61F09F3F79F087950895D4
:102AD000121613061406551FF2CF4695F1DF08C0F3
:102AE000161617061806991FF1CF86957105610510
:102AF00008940895E894BB2766277727CB0197F9B8
:102B000008958ADF08F48FEF08950BD0C0CFB1DFAE
:102B100028F0B6DF18F0952309F0A2CFA7CF112433
:102B2000EACFC6DFA0F3959FD1F3950F50E0551F74
:102B3000629FF001729FBB27F00DB11D639FAA2712
:102B4000F00DB11DAA1F649F6627B00DA11D661F61
:102B5000829F2227B00DA11D621F739FB00DA11D82
:102B6000621F839FA00D611D221F749F3327A00D3C
:102B7000611D231F849F600D211D822F762F6A2FD8
:102B800011249F5750408AF0E1F088234AF0EE0F5D
:102B9000FF1FBB1F661F771F881F91505040A9F76A
:102BA0009E3F510570F05CCFA6CF5F3FECF3983E9F
:102BB000DCF3869577956795B795F795E7959F5FD1
:102BC000C1F7FE2B880F911D9695879597F908956B
:102BD000629FD001739FF001829FE00DF11D649F01
:102BE000E00DF11D929FF00D839FF00D749FF00D8D
:102BF000659FF00D9927729FB00DE11DF91F639F2E
:102C0000B00DE11DF91FBD01CF0111240895991BDD
:102C100079E004C0991F961708F0961B881F7A95D3
:102C2000C9F78095089597FB092E07260AD077FDEE
:102C300004D049D006D000201AF4709561957F4FDA
:102C40000895F6F7909581959F4F0895A1E21A2E69
:102C5000AA1BBB1BFD010DC0AA1FBB1FEE1FFF1F40
:102C6000A217B307E407F50720F0A21BB30BE40B90
:102C7000F50B661F771F881F991F1A9469F76095D7
:102C80007095809590959B01AC01BD01CF01089591
:102C900097FB092E05260ED057FD04D0D7DF0AD0AA
:102CA000001C38F450954095309521953F4F4F4F7B
:102CB0005F4F0895F6F790958095709561957F4FD9
:102CC0008F4F9F4F0895AA1BBB1B51E107C0AA1F3E
:102CD000BB1FA617B70710F0A61BB70B881F991FBD
:102CE0005A95A9F780959095BC01CD010895EE0FF6
:0E2CF000FF1F0590F491E02D0994F894FFCF9A
:102CFE000200010000000042020000002042BE6AF5
:102D0E00B53F000000002D10D210C30FF40FD40FEA
:022D1E001D1086
:00000001FF
