:100000000C9463000C948B000C948B000C948B006C
:100010000C948B000C948B000C948B000C948B0034
:100020000C948B000C948B000C948B000C94D20BD2
:100030000C948B000C948B000C948B000C948B0014
:100040000C94F40F0C948B000C94910C0C94DF0C1A
:100050000C948B000C948B000C948B000C948B00F4
:100060000C948B000C948B000000000024002700EF
:100070002A0000000000250028002B0000000000DE
:1000800023002600290004040404040404040202DA
:100090000202020203030303030301020408102007
:1000A0004080010204081020010204081020000012
:1000B0000007000201000003040600000000000029
:1000C000000037014B0E11241FBECFEFD8E0DEBF7A
:1000D000CDBF11E0A0E0B1E0EAEBF8E202C005908C
:1000E0000D92A432B107D9F712E0A4E2B1E001C049
:1000F0001D92AE38B107E1F710E0C6ECD0E004C0C5
:100100002297FE010E945714C23CD107C9F70E94F2
:10011000A10E0C945B140C9400006F927F928F924E
:100120009F92AF92BF92CF92DF92EF92FF920F9386
:100130001F93CF93DF93C7E4D1E087E6882E81E059
:10014000982E34010F2EF0E0AF2EF0E0BF2EF0E03D
:10015000CF2EF0E0DF2EF02DE880F9800A811B81A0
:10016000C801B70120E030E048E852E40E941012D4
:1001700088230CF068C080E090E0A8E8B2E48883AF
:100180009983AA83BB83C601B501F3012191319103
:10019000419151913F010E94AC115B016C01249689
:1001A000F1E0C735DF07C1F620E030E040E85EE36C
:1001B0000E9463137B018C01C801B70120E030E08D
:1001C00046E952E40E941012882374F560E070E062
:1001D00086E992E4A80197010E94AB119B01AC0152
:1001E000F40160817181828193810E94AC11F401DC
:1001F000608371838283938384E090E0880E991EEC
:1002000097E7891691E09906B9F6DF91CF911F9192
:100210000F91FF90EF90DF90CF90BF90AF909F90A5
:100220008F907F906F900895C801B70120E030E073
:1002300040EF52E40E945F131816F4F660E070E09D
:1002400080EF92E4C7CFC801B70120E030E046E17B
:1002500053E40E945F1318160CF095CF80E090E0F5
:10026000A6E1B3E488839983AA83BB838CCF0F93E1
:100270001F930BE311E0C8010E948E0AC801039688
:100280000E948E0AC80106960E948E0AC80109962D
:100290000E948E0A60919301709194018091950162
:1002A0009091960120E030E040E85CE30E94631307
:1002B00060939701709398018093990190939A01AC
:1002C0001F910F9108950F931F9383E692E00E9470
:1002D000A10D892B49F48091AF019091B001039752
:1002E00071F11F910F9108950091AF011091B0012C
:1002F00083E692E00E94D20D0B551E4FF8018083D9
:100300008091AF019091B00101969093B0018093DC
:10031000AF018130910519F79091A501892F805186
:100320008330F8F29032E9F29132D9F29232C9F286
:100330009434B9F21092B0011092AF01D2CF209153
:10034000A501322F3051333088F0203279F021323C
:1003500069F0223259F01092B0011092AF01109260
:10036000A2011092A1011F910F9108951092B00166
:100370001092AF0180919F019091A001009791F49C
:10038000203169F13230C8F0822F80528230F0F093
:10039000223161F1223209F0A4CF1092B301109200
:1003A000B4019FCF019771F7203261F782E090E0AE
:1003B0009093A2018093A10194CF8091A601809394
:1003C000B1018091A7018093B2018BCF8091A601EA
:1003D0008093B4018091A7018093B30182CF81E023
:1003E00090E09093A2018093A1017BCF1092B10184
:1003F0001092B20176CF8091100161E00E94C3108B
:100400008091A30160E00E94C3108091120161E01D
:100410000E94C31083E692E040E855E260E070E09D
:100420000E941A0D08952F923F924F925F926F9201
:100430007F928F929F92AF92BF92CF92DF92EF9274
:10044000FF920F931F93DF93CF93CDB7DEB72C9717
:100450000FB6F894DEBF0FBECDBF47E4442E41E097
:10046000542E37E5832E31E0932E520166247724F3
:10047000D501CD90DD90ED90FC90C701B601F4015F
:1004800020813181428153810E941012882309F01A
:10049000B3C00894611C711C84E090E0A80EB91EE2
:1004A000880E991E94E06916710411F7809100017D
:1004B00090910101A0910201B091030189879A876F
:1004C000AB87BC87B0588D839E83AF83B8878091FC
:1004D0000C0190910D01A0910E01B0910F01898343
:1004E0009A83AB83BC8397E6292E91E0392ED20103
:1004F000AD90BD90CD90DC90F101608071808280E4
:100500009380C601B501A40193010E94AB117B0148
:100510008C0129853A854B855C850E945F131816EE
:10052000B4F4C401B30129853A854B855C850E94EA
:10053000AC11D2016D937D938D939C9313975B01C6
:100540006C01A40193010E94AB117B018C01C801D5
:10055000B7012D813E814F8158850E94101288235A
:10056000ACF4C401B30129853A854B855C850E94B2
:10057000AB11F20160837183828393835B016C0111
:10058000A40193010E94AB117B018C01C801B7014A
:1005900029813A814B815C810E9414129B01AC013C
:1005A000C601B5010E94AB11D2016D937D938D936D
:1005B0009D932D01E4E0F0E02E0E3F1EF1E0A73503
:1005C000BF0709F094CF2C960FB6F894DEBF0FBE8C
:1005D000CDBFCF91DF911F910F91FF90EF90DF90F2
:1005E000CF90BF90AF909F908F907F906F905F90D3
:1005F0004F903F902F9008958301000F111F060D1B
:10060000171D055C1E4FC701B6010E947C129B019D
:10061000AC01C801B9010E94E40AF5018081918111
:10062000A281B381F40180839183A283B38331CF0C
:100630002F923F924F925F926F927F928F929F92F2
:10064000AF92BF92CF92DF92EF92FF920F931F93E0
:10065000DF93CF9300D000D0CDB7DEB760912F01EC
:10066000709130012091350130913601621B730B7E
:1006700020917F0130918001621B730B882777FDE9
:100680008095982F0E94AF121B012C0160913101BF
:10069000709132012091370130913801621B730B48
:1006A0002091810130918201621B730B882777FDB5
:1006B0008095982F0E94AF1269837A838B839C83E5
:1006C000C201B10120E030E040E050E00E945F1341
:1006D00018160CF072C2C201B10120E030E040E80F
:1006E00053E40E94101287FDEDC0C201B1010E94C7
:1006F0007C12672B09F037C2E0907701F090780107
:100700000091790110917A01C801B70120E030E031
:1007100040E050E00E945F1318160CF098C2C80128
:10072000B70120E030E040E85FE30E94AB117B01BD
:100730008C01609377017093780180937901909395
:100740007A01A0900401B0900501C0900601D090FC
:100750000701C801B701A60195010E945F13181691
:100760000CF4D5C2A60195015058C801B7010E94EA
:10077000101288230CF44FC3C201B10120918B01E8
:1007800030918C0140918D0150918E010E94AC11ED
:100790005B016C0160938B0170938C0180938D01E0
:1007A00090938E01C201B1012091830130918401A7
:1007B00040918501509186010E94AB1120928301E6
:1007C00030928401409285015092860120919B01D4
:1007D00030919C0140919D0150919E010E946313B4
:1007E0003B014C01C201B101209193013091940170
:1007F00040919501509196010E9463137B018C01F9
:10080000C601B5012091970130919801409199015D
:1008100050919A010E9463139B01AC01C801B7017A
:100820000E94AC119B01AC01C401B3010E94AC1148
:100830007B018C0160916701709168018091690171
:1008400090916A0120916B0130916C0140916D0192
:1008500050916E010E94AB1120E030E040E05FE378
:100860000E9463139B01AC01C801B7010E94AC1147
:100870007B018C0160914701709148018091490191
:1008800090914A01A80197010E94AC116093470121
:10089000709348018093490190934A0160914B0104
:1008A00070914C0180914D0190914E01A8019701EA
:1008B0000E94AB1160934B0170934C0180934D01EA
:1008C00090934E0169817A818B819C8120E030E098
:1008D00040E050E00E945F1318160CF068C1698177
:1008E0007A818B819C8120E030E040E853E40E94D3
:1008F000101287FDF9C069817A818B819C810E94E9
:100900007C12672B09F009C1E0907B01F0907C011B
:1009100000917D0110917E01C801B70120E030E017
:1009200040E050E00E945F1318160CF04AC1C80165
:10093000B70120E030E040E85FE30E94AB117B01AB
:100940008C0160937B0170937C0180937D01909377
:100950007E01A0900401B0900501C0900601D090E6
:100960000701C801B701A60195010E945F1318167F
:100970000CF48BC1A60195015058C801B7010E9423
:10098000101288230CF405C269817A818B819C81C5
:1009900020918F01309190014091910150919201ED
:1009A0000E94AC115B016C0160938F017093900108
:1009B000809391019093920169817A818B819C81CE
:1009C00020918701309188014091890150918A01DD
:1009D0000E94AB1129813A814B815C812093870170
:1009E000309388014093890150938A0120919B01A3
:1009F00030919C0140919D0150919E010E94631392
:100A00003B014C0169817A818B819C81209193010A
:100A10003091940140919501509196010E94631389
:100A20007B018C01C601B50120919701309198019D
:100A30004091990150919A010E9463139B01AC016E
:100A4000C801B7010E94AC119B01AC01C401B30104
:100A50000E94AC117B018C0160916F01709170015B
:100A60008091710190917201209173013091740114
:100A700040917501509176010E94AB1120E030E069
:100A800040E05FE30E9463139B01AC01C801B70122
:100A90000E94AC117B018C0160914F01709150015B
:100AA0008091510190915201A80197010E94AC11CF
:100AB00060934F01709350018093510190935201C4
:100AC00060915301709154018091550190915601AC
:100AD000A80197010E94AB116093530170935401D8
:100AE00080935501909356010E948D000F900F90B6
:100AF0000F900F90CF91DF911F910F91FF90EF908A
:100B0000DF90CF90BF90AF909F908F907F906F902D
:100B10005F904F903F902F90089569817A818B81EB
:100B20009C8120E030E040E050E00E945F13181606
:100B30000CF065C060917B0170917C0180917D011A
:100B400090917E0120E030E040E85FE30E94AC112C
:100B50007B018C0160937B0170937C0180937D010C
:100B600090937E01F6CEC201B10120E030E040E07A
:100B700050E00E945F1318160CF056C06091770188
:100B8000709178018091790190917A0120E030E0B4
:100B900040E85FE30E94AC117B018C016093770118
:100BA000709378018093790190937A01CACD69811D
:100BB0007A818B819C81905896CEC201B101905868
:100BC0008CCDC801B70120E030E040E050E00E9449
:100BD000101288230CF0BDCEC801B70120E030E030
:100BE00040E85FE30E94AC117B018C0160937B01C4
:100BF00070937C0180937D0190937E01AACE6981E0
:100C00007A818B819C8120E030E040E050E00E94BE
:100C1000101287FD29C1E0907B01F0907C010091CA
:100C20007D0110917E0195CEC201B10120E030E03E
:100C300040E050E00E94101287FD2FC1E090770144
:100C4000F09078010091790110917A017ACDC80174
:100C5000B70120E030E040E050E00E94101288230D
:100C60000CF06FCDC801B70120E030E040E85FE351
:100C70000E94AC117B018C01609377017093780125
:100C80008093790190937A015CCDE0900801F09017
:100C9000090100910A0110910B0160916F0170919F
:100CA00070018091710190917201A80197010E94D9
:100CB000AC1160936F0170937001809371019093F8
:100CC000720160917301709174018091750190912E
:100CD0007601A80197010E94AB1160937301709394
:100CE000740180937501909376018091100161E009
:100CF0000E942F1180E090E0A0E0B0E080937B01A3
:100D000090937C01A0937D01B0937E013DCEE09055
:100D10000801F090090100910A0110910B01609106
:100D20006701709168018091690190916A01A80141
:100D300097010E94AC1160936701709368018093E2
:100D4000690190936A0160916B0170916C018091CF
:100D50006D0190916E01A80197010E94AB11609303
:100D60006B0170936C0180936D0190936E01809183
:100D7000100161E00E942F1180E090E0A0E0B0E05F
:100D80008093770190937801A0937901B0937A01D1
:100D9000F3CCE0900801F090090100910A01109154
:100DA0000B0160916F0170917001809171019091C0
:100DB0007201A80197010E94AB1160936F017093BB
:100DC00070018093710190937201C801B701209165
:100DD00073013091740140917501509176010E9428
:100DE000AC116093730170937401809375019093BB
:100DF00076018091100160E00E942F1180E090E068
:100E0000A0E0B0E080937B0190937C01A0937D01F2
:100E1000B0937E01B9CDE0900801F09009010091F6
:100E20000A0110910B016091670170916801809136
:100E3000690190916A01A80197010E94AB1160932A
:100E40006701709368018093690190936A01C801FA
:100E5000B70120916B0130916C0140916D0150916F
:100E60006E010E94AC117BCF60917B0170917C017F
:100E700080917D0190917E0120E030E040E85FE3C9
:100E80000E94AB117B018C0160937B0170937C010C
:100E900080937D0190937E015CCD6091770170918C
:100EA00078018091790190917A0120E030E040E86A
:100EB0005FE30E94AB117B018C016093770170931B
:100EC00078018093790190937A013BCCCF93DF93A3
:100ED000C091A101D091A20180919F019091A001A8
:100EE000C817D90709F479C0C130D10509F481C008
:100EF000C230D10509F474C0CD2B09F06EC080E07A
:100F000090E0A8E1B2E48093670190936801A09318
:100F10006901B0936A018093470190934801A093BF
:100F20004901B0934A0120E03FEF4FE757E4209397
:100F30005701309358014093590150935A018093BF
:100F40006B0190936C01A0936D01B0936E0180933F
:100F50004B0190934C01A0934D01B0934E0120930F
:100F60005B0130935C0140935D0150935E0180937F
:100F70006F0190937001A0937101B09372018093FF
:100F80004F0190935001A0935101B09352012093CF
:100F90005F0130936001409361015093620180933F
:100FA000730190937401A0937501B09376018093BF
:100FB000530190935401A0935501B093560120938F
:100FC00063013093640140936501509366010E9470
:100FD0008D001092A00110929F01DF91CF91089592
:100FE0000E948D00D093A001C0939F01DF91CF910B
:100FF00008958091100160E00E942F1180E090E040
:1010000020E030E048E852E4FC01E959FE4F20833B
:10101000318342835383FC01E95BFE4F208331839C
:101020004283538304968031910571F70E948D00AD
:1010300081E090E09093A00180939F01DF91CF9198
:1010400008950F931F93182F062F8AE060E00E94E7
:101050002F111EBD0DB407FEFDCF8EB50EBD0DB414
:1010600007FEFDCF8EB58AE061E00E942F111F912F
:101070000F910895FF920F931F93CF93DF93EB018E
:101080008A0160E8F62EF82AC230D1051CF050EC37
:10109000F52EF82A8AE060E00E942F11FEBC0DB404
:1010A00007FEFDCF8EB51C161D0684F420E030E04F
:1010B0001EBC0DB407FEFDCF8EB5F801E20FF31F85
:1010C00080832F5F3F4F2C173D0794F38AE061E048
:1010D0000E942F11DF91CF911F910F91FF900895E2
:1010E0008F929F92AF92BF92CF92DF92EF92FF9238
:1010F0000F931F93CF93DF938BE391E063E070E056
:101100000E94CB0B8EE391E065E070E00E94CB0B78
:1011100081E491E066E070E00E94CB0B84E491E012
:1011200069E070E00E94CB0B00E010E0C0E0D0E08E
:101130000F2EF0E0CF2EF0E0DF2EF8E1EF2EF2E4FC
:10114000FF2EF02D0F2EF0E08F2EFFEF9F2EFFE7EA
:10115000AF2EF7E4BF2EF02DFE01E959FE4FC082FD
:10116000D182E282F382FE01E95BFE4FC082D1822E
:10117000E282F382FE01E95AFE4F80829182A282CE
:10118000B382C801880F991F800F911F855C9E4F05
:1011900066E270E00E94E40A0F5F1F4F249604305D
:1011A0001105D1F6DF91CF911F910F91FF90EF9034
:1011B000DF90CF90BF90AF909F908F9008950F9346
:1011C0001F9382E366E070E048E251E00E943A0833
:1011D00080912901992787FD909583709070982FB1
:1011E000882720912801332727FD3095822B932BC8
:1011F0009093300180932F0180912B01992787FDD7
:10120000909583709070982F882720912A0133271A
:1012100027FD3095822B932B9093320180933101DF
:1012200080912D01992787FD909583709070982F5C
:10123000882720912C01332727FD3095822B932B73
:10124000909334018093330180E061E070E04EE2DE
:1012500051E00E943A0803E612E060912E01C801B5
:1012600070E040E150E00E94C20FC8010E94E20E0F
:1012700060912F0170913001C8014AE050E00E9456
:10128000C20FC8016CE20E94DA0E609131017091C8
:101290003201C8014AE050E00E94C20FC8016CE26E
:1012A0000E94DA0E6091330170913401C8014AE066
:1012B00050E00E94D50F1F910F9108950E94DF0802
:1012C0001092800110927F01109282011092810190
:1012D00008950E9463010E9466070E945E090E94B1
:1012E00018030E9413020895CF92DF92EF92FF92AB
:1012F0000F931F93CF93DF9300E010E0EE24FF24C1
:10130000CC24DD24C0E0D0E00E94DF0880912F01D2
:1013100090913001080F191F809131019091320195
:10132000E80EF91E8091330190913401C80ED91E48
:10133000219682E0C03DD80739F7C80160ED72E020
:101340000E94F1137093360160933501C70160ED7F
:1013500072E00E94F1137093380160933701C60167
:1013600060ED72E00E94F11370933A0160933901CD
:1013700083E692E00E94E20E6091350170913601A1
:1013800083E692E04AE050E00E94C20F83E692E0DA
:101390006CE20E94DA0E609137017091380183E6A9
:1013A00092E04AE050E00E94C20F83E692E06CE2D5
:1013B0000E94DA0E6091390170913A0183E692E061
:1013C0004AE050E00E94D50FDF91CF911F910F911D
:1013D000FF90EF90DF90CF9008950E94770A82E00F
:1013E0000E94660A8CE00E94610A88E060E00E9428
:1013F000C3108AE061E00E94C3108AE061E00E94AD
:101400002F1165E070E080E090E00E94621081E3BF
:1014100061E00E94210880E090E0A0E8B0E48093C1
:10142000240190932501A0932601B093270165E044
:1014300070E080E090E00E9462108DE268E00E941F
:10144000210865E070E080E090E00E9462108EE28A
:1014500060E80E94210865E070E080E090E00E9472
:1014600062108FE26FE70E94210865E070E080E083
:1014700090E00E9462108CE26FE00E94210865E01B
:1014800070E080E090E00E94621088E360E00E94DB
:10149000210865E070E080E090E00E94621008950D
:1014A00083E692E040E855E260E070E00E941A0DA9
:1014B0000E9470080E94ED090E9474090E94FB01BD
:1014C00008959CB5937F982B9CBD08952CB5382F1B
:1014D00033702C7F322B3CBD2DB590E095958795D0
:1014E0009595879581702E7F822B8DBD08958AE01A
:1014F00061E00E942F118AE061E00E94C3108CB568
:1015000080618CBD8CB580648CBD8DE061E00E94F3
:10151000C3108BE061E00E94C3100895FC0180912C
:10152000B5018C3090F480838F5F8093B50181503A
:1015300090E0FC01EE0FFF1FE80FF91FEA54FE4F89
:1015400088EB9BE09283818308958FEF80830895D9
:10155000FC0120812C30B8F58181992787FD909579
:1015600048E850E0481B590B440F551F440F551FC6
:101570006417750784F08281992787FD909548E567
:1015800052E0481B590B440F551F440F551F641759
:1015900075070CF4AB0142505040CA01AA2797FDD1
:1015A000A095BA2F880F991FAA1FBB1F4FB7F89499
:1015B00030E0F901EE0FFF1FE20FF31FEA54FE4F78
:1015C000928381834FBF0895AF92BF92CF92DF92F3
:1015D000EF92FF920F931F93CF93DF93EC019B0148
:1015E00082E0603278070CF048C077FF03C020E04B
:1015F00030E005C0653B710514F024EB30E000D00D
:1016000000D0B901882777FD8095982F298133274D
:1016100027FD3095B8E8AB2EB12CA21AB30AAA0C5C
:10162000BB1CAA0CBB1CCC24B7FCC094DC2CEA81EC
:10163000FF27E7FDF09528E532E02E1B3F0B220F38
:10164000331F220F331F442737FD4095542FEDB72A
:10165000FEB7218332834383548320E030E040E0AF
:1016600050E0E4EBEE2EF12C012D112D0E946211C1
:101670009B010F900F900F900F90CE01B9010E9427
:10168000A80ADF91CF911F910F91FF90EF90DF900B
:10169000CF90BF90AF900895CF92DF92EF92FF92DC
:1016A0001F93CF93DF93EC01162F7A016901888194
:1016B0008C3008F064C0862F61E00E94C3108881DE
:1016C00090E0FC01EE0FFF1FE80FF91FEA54FE4FF8
:1016D0001F738081807C812B808380E292E08E1951
:1016E0009F0964E070E00E94F113698380E699E04D
:1016F0008C199D0964E070E00E94F1136A83A8814F
:101700008A2F6CE00E94E513682F70E0AB01440F54
:10171000551F460F571F440F551F440F551F20E0FC
:1017200030E0C901840F951FFC01EE0FFF1FE80F89
:10173000F91FEA54FE4F808186FD15C02F5F3F4F91
:101740002C30310571F724C01092800082E0809324
:1017500081001092850010928400B19A80916F00F0
:10176000826080936F008A2F90E0FC01EE0FFF1FD4
:10177000E80FF91FEA54FE4F8081806480838881DE
:10178000DF91CF911F91FF90EF90DF90CF90089560
:10179000672BD1F2E8CF40E252E020E639E00E9428
:1017A0004C0B08951F920F920FB60F9211242F9396
:1017B0003F934F935F936F937F938F939F93AF93D9
:1017C000BF93EF93FF938091DA0187FF05C01092DA
:1017D0008500109284002BC02091DA01332727FD69
:1017E00030958091B50190E02817390704F5809174
:1017F000DA01992787FD9095FC01EE0FFF1FE80F96
:10180000F91FEA54FE4F808186FF11C08091DA01F2
:10181000992787FD9095FC01EE0FFF1FE80FF91F38
:10182000EA54FE4F80818F7360E00E942F118091F7
:10183000DA018F5F8093DA012091DA01332727FDE7
:1018400030958091B50190E0281739070CF04EC013
:101850008091DA018C300CF049C0209184003091E5
:1018600085008091DA01992787FD9095FC01EE0FA4
:10187000FF1FE80FF91FEA54FE4F81819281280F64
:10188000391F30938900209388008091DA019927CD
:1018900087FD9095FC01EE0FFF1FE80FF91FEA543A
:1018A000FE4F808186FF2BC08091DA01992787FD4A
:1018B0009095FC01EE0FFF1FE80FF91FEA54FE4F51
:1018C00080818F7361E00E942F1119C080E49CE930
:1018D00005C08091840090918500049690938900C2
:1018E000809388008FEF8093DA0109C08091840093
:1018F00090918500049680549C4940F3EACFFF9173
:10190000EF91BF91AF919F918F917F916F915F9177
:101910004F913F912F910F900FBE0F901F901895F0
:1019200008951F920F920FB60F9211242F933F9399
:101930004F938F939F93EF93FF938091C00082FD0D
:101940001DC04091C60020911B0230911C022F5FE8
:101950003F4F2F73307080911D0290911E02281707
:10196000390771F0E0911B02F0911C02E552FE4F25
:10197000408330931C0220931B0202C08091C6005A
:10198000FF91EF919F918F914F913F912F910F90E8
:101990000FBE0F901F901895E0916F02F0917002AA
:1019A000E05CFF4F8191919120813181821B930BEB
:1019B0008F739070892B11F00E94900C08951F92E4
:1019C0000F920FB60F9211242F933F938F939F93F3
:1019D000EF93FF9320915F0230916002809161024A
:1019E000909162022817390731F48091C1008F7DF0
:1019F0008093C10014C0E0916102F0916202E15E47
:101A0000FD4F2081809161029091620201968F7357
:101A1000907090936202809361022093C600FF91C0
:101A2000EF919F918F913F912F910F900FBE0F904B
:101A30001F901895AF92BF92DF92EF92FF920F9393
:101A40001F93CF93DF93EC017A018B01DD244030AB
:101A500081EE580780E0680780E0780711F0DD2408
:101A6000D39491E0A92EB12CEC89FD89DD2069F099
:101A7000C50108A002C0880F991F0A94E2F780836D
:101A800060E079E08DE390E005C0108260E874E8E2
:101A90008EE190E0A80197010E940414215030408B
:101AA00040405040569547953795279580E1203026
:101AB000380720F0DD2011F0DD24D6CFE889F98940
:101AC0003083EA89FB89208319A2EE89FF8940814E
:101AD00021E030E0C9010C8C02C0880F991F0A94E4
:101AE000E2F7482B4083EE89FF894081C9010D8CC4
:101AF00002C0880F991F0A94E2F7482B4083EE89B1
:101B0000FF894081C9010E8C02C0880F991F0A9479
:101B1000E2F7482B4083EE89FF8980810F8C02C059
:101B2000220F331F0A94E2F7209528232083DF91A8
:101B3000CF911F910F91FF90EF90DF90BF90AF90EA
:101B40000895DC011C96ED91FC911D97E05CFF4F20
:101B50002191319180819181281B390B2F73307035
:101B6000C9010895DC011C96ED91FC911D97E05C84
:101B7000FF4F20813181E054F040DF01AE5BBF4F69
:101B80008D919C9111972817390719F42FEF3FEF8A
:101B900007C08D919C91E80FF91F8081282F30E0BC
:101BA000C9010895DC011C96ED91FC911D97E05C44
:101BB000FF4F20813181E054F040DF01AE5BBF4F29
:101BC0008D919C9111972817390719F42FEF3FEF4A
:101BD00010C08D919C911197E80FF91F20818D9174
:101BE0009C91119701968F73907011969C938E9390
:101BF00030E0C9010895DC0191968C91919788237A
:101C000039F05496ED91FC915597808186FFF9CF7C
:101C100091961C920895CF93DF93EC01EE85FF859A
:101C2000E05CFF4F20813181E054F0402F5F3F4F57
:101C30002F733070DF01AE5BBF4F8D919C91119778
:101C400028173907D1F3E05CFF4F80819181E05480
:101C5000F040E80FF91F6083EE85FF85E05CFF4FE1
:101C600031832083EE89FF89208181E090E00F8C11
:101C700002C0880F991F0A94E2F7282B208381E085
:101C800089A3EC89FD8980818064808381E090E074
:101C9000DF91CF910895109266021092650288EE4E
:101CA00093E0A0E0B0E08093670290936802A09375
:101CB0006902B0936A0288E191E090936402809394
:101CC00063028BED91E09093700280936F028FE13D
:101CD00092E0909372028093710285EC90E0909371
:101CE00074028093730284EC90E090937602809368
:101CF000750280EC90E0909378028093770281ECFB
:101D000090E090937A028093790282EC90E0909335
:101D10007C0280937B0286EC90E090937E0280931D
:101D20007D0284E080937F0283E08093800287E0DD
:101D30008093810285E08093820281E08093830218
:101D40000895CF93DF930E9488100E94500ACCEC34
:101D5000DCE00E9469092097E1F30E94CC0CF9CFE6
:101D6000CF92DF92EF92FF920F931F93CF93DF9367
:101D70007C016B018A01C0E0D0E00FC0D6016D91FB
:101D80006D01D701ED91FC910190F081E02DC7012B
:101D90000995C80FD91F015010400115110571F7A1
:101DA000CE01DF91CF911F910F91FF90EF90DF90C7
:101DB000CF900895DC01ED91FC910190F081E02D30
:101DC00009950895EF92FF920F931F938C01DC0108
:101DD000ED91FC910190F081E02D6DE009957C0181
:101DE000D801ED91FC910190F081E02DC8016AE0ED
:101DF00009959C012E0D3F1DC9011F910F91FF9068
:101E0000EF900895CF93DF93EC016115710519F4FC
:101E100020E030E00FC0DB010D900020E9F71197C2
:101E2000A61BB70BE881F9810280F381E02DAD019B
:101E300009959C01C901DF91CF9108954F925F925E
:101E40007F928F929F92AF92BF92CF92DF92EF924A
:101E5000FF920F931F93DF93CF93CDB7DEB7A19778
:101E60000FB6F894DEBF0FBECDBF2C01742ECB0190
:101E7000223008F42AE019A231E2C32ED12CCC0E74
:101E8000DD1E822E9924AA24BB24672D752FA5015F
:101E900094010E94041479018A01C801B701A501C7
:101EA00094010E94C613472D461B0894C108D1080F
:101EB0004A3014F4405D01C0495CF6014083E114EE
:101EC000F1040105110521F07E2C5F2DC801DDCF45
:101ED000C201B6010E94020FA1960FB6F894DEBFB0
:101EE0000FBECDBFCF91DF911F910F91FF90EF906B
:101EF000DF90CF90BF90AF909F908F907F905F903A
:101F00004F900895CF92DF92EF92FF920F931F931D
:101F1000CF93DF93EC016A017B012115310541F478
:101F2000E881F9810190F081E02D642F09951FC0AF
:101F30002A303105D1F477FF17C0E881F98101908B
:101F4000F081E02D6DE209958C0144275527BA01F7
:101F50004C195D096E097F09CE012AE00E941E0F0F
:101F60009801280F391F04C02AE00E941E0F9C010F
:101F7000C901DF91CF911F910F91FF90EF90DF90FA
:101F8000CF900895EF92FF920F931F937B019A01D8
:101F90000027F7FC0095102FB801A7010E94820FBF
:101FA0001F910F91FF90EF900895CF92DF92EF92E3
:101FB000FF920F931F936C017B019A010027F7FC9E
:101FC0000095102FB801A7010E94820F8C01C60155
:101FD0000E94E20E080F191FC8011F910F91FF9078
:101FE000EF90DF90CF9008951F920F920FB60F924F
:101FF00011242F933F938F939F93AF93BF9380911F
:10200000890290918A02A0918B02B0918C0230914A
:102010008D020196A11DB11D232F2D5F2D3720F0BC
:102020002D570196A11DB11D20938D028093890229
:1020300090938A02A0938B02B0938C0280918502C8
:1020400090918602A0918702B09188020196A11D0D
:10205000B11D8093850290938602A0938702B0936E
:102060008802BF91AF919F918F913F912F910F90D7
:102070000FBE0F901F9018959FB7F894209185027E
:1020800030918602409187025091880286B5A89BC4
:1020900006C08F3F21F02F5F3F4F4F4F5F4F9FBFD5
:1020A000542F432F322F2227280F311D411D511D40
:1020B00082E0220F331F441F551F8A95D1F7B901C3
:1020C000CA010895EF92FF920F931F93CF93DF936E
:1020D0007B018C010E943C10EB010EC00E943C1061
:1020E0006C1B7D0B685E7340C8F30894E108F1082F
:1020F00001091109C851DC4FE114F1040105110572
:1021000069F7DF91CF911F910F91FF90EF900895A4
:10211000789484B5826084BD84B5816084BD85B5C2
:10212000826085BD85B5816085BDEEE6F0E0808189
:1021300081608083E1E8F0E01082808182608083AA
:10214000808181608083E0E8F0E08081816080832D
:10215000E1EBF0E0808184608083E0EBF0E080815F
:1021600081608083EAE7F0E0808184608083808101
:1021700082608083808181608083808180688083A9
:102180001092C1000895CF93DF93482F50E0CA0109
:1021900086569F4FFC0134914A575F4FFA01849154
:1021A000882369F190E0880F991FFC01E859FF4FDF
:1021B000A591B491FC01EE58FF4FC591D4916623CF
:1021C00051F42FB7F8948C91932F909589238C9389
:1021D000888189230BC0623061F42FB7F8948C9109
:1021E000932F909589238C938881832B88832FBF8D
:1021F00006C09FB7F8948C91832B8C939FBFDF917F
:10220000CF910895833071F0843028F48130A1F0AB
:10221000823021F514C08630B1F08730D1F084309F
:10222000E9F404C0809180008F7703C08091800022
:102230008F7D80938000089584B58F7702C084B528
:102240008F7D84BD08958091B0008F778093B0001A
:1022500008958091B0008F7D8093B0000895FF9223
:102260000F931F93F62E482F50E0CA0182559F4FBF
:10227000FC012491CA0186569F4FFC0114914A57D4
:102280005F4FFA0104910023C9F0222319F0822F35
:102290000E940211E02FF0E0EE0FFF1FEE58FF4FFB
:1022A000A591B4919FB7F894FF2021F48C911095DB
:1022B000812302C08C91812B8C939FBF1F910F9122
:1022C000FF9008952F923F924F925F926F927F926C
:1022D0008F929F92AF92BF92CF92DF92EF92FF9236
:1022E0000F931F93DF93CF93CDB7DEB73B014C0124
:1022F00019012A016D897E898F89988D6A197B0958
:102300008C099D09621A730A840A950AA401930133
:102310000E94C613E218F30804091509A8019701E1
:102320000E9426142A0D3B1D4C1D5D1DB901CA01DA
:10233000CF91DF911F910F91FF90EF90DF90CF90A1
:10234000BF90AF909F908F907F906F905F904F90D5
:102350003F902F9008955058BB27AA270ED075C1E3
:1023600066D130F06BD120F031F49F3F11F41EF4B0
:102370005BC10EF4E095E7FB51C1E92F77D180F303
:10238000BA17620773078407950718F071F49EF572
:102390008FC10EF4E0950B2EBA2FA02D0B01B901C1
:1023A00090010C01CA01A0011124FF27591B99F0CB
:1023B000593F50F4503E68F11A16F040A22F232FD7
:1023C000342F4427585FF3CF469537952795A79527
:1023D000F0405395C9F77EF41F16BA0B620B730BCE
:1023E000840BBAF09150A1F0FF0FBB1F661F771F3F
:1023F000881FC2F70EC0BA0F621F731F841F48F4F4
:10240000879577956795B795F7959E3F08F0B3CF79
:102410009395880F08F09927EE0F97958795089563
:10242000D9D008F481E008950CD00FC107D140F055
:10243000FED030F021F45F3F19F0F0C0511139C1E6
:10244000F3C014D198F39923C9F35523B1F3951B25
:10245000550BBB27AA2762177307840738F09F5FC5
:102460005F4F220F331F441FAA1FA9F333D00E2E34
:102470003AF0E0E830D091505040E695001CCAF7A1
:1024800029D0FE2F27D0660F771F881FBB1F261766
:1024900037074807AB07B0E809F0BB0B802DBF0139
:1024A000FF2793585F4F2AF09E3F510568F0B6C052
:1024B00000C15F3FECF3983EDCF386957795679516
:1024C000B795F7959F5FC9F7880F911D96958795EA
:1024D00097F90895E1E0660F771F881FBB1F621709
:1024E00073078407BA0720F0621B730B840BBA0BC7
:1024F000EE1F88F7E095089504D06894B111D9C013
:102500000895BCD088F09F5790F0B92F9927B75104
:10251000A0F0D1F0660F771F881F991F1AF0BA95A7
:10252000C9F712C0B13081F0C3D0B1E00895C0C086
:10253000672F782F8827B85F39F0B93FCCF386959D
:1025400077956795B395D9F73EF4909580957095FA
:1025500061957F4F8F4F9F4F0895E89409C097FB77
:102560003EF490958095709561957F4F8F4F9F4F6A
:102570009923A9F0F92F96E9BB279395F6958795AE
:1025800077956795B795F111F8CFFAF4BB0F11F471
:1025900060FF1BC06F5F7F4F8F4F9F4F16C0882318
:1025A00011F096E911C0772321F09EE8872F762F4E
:1025B00005C0662371F096E8862F70E060E02AF08F
:1025C0009A95660F771F881FDAF7880F969587957B
:1025D00097F90895990F0008550FAA0BE0E8FEEF50
:1025E00016161706E807F907C0F012161306E407D7
:1025F000F50798F0621B730B840B950B39F40A26D0
:1026000061F0232B242B252B21F408950A2609F4AD
:10261000A140A6958FEF811D811D089597F99F67B1
:1026200080E870E060E008959FEF80EC089500245A
:102630000A941616170618060906089500240A9427
:1026400012161306140605060895092E0394000CAD
:1026500011F4882352F0BB0F40F4BF2B11F460FF3C
:1026600004C06F5F7F4F8F4F9F4F089557FD905865
:10267000440F551F59F05F3F71F04795880F97FB46
:10268000991F61F09F3F79F0879508951216130600
:102690001406551FF2CF4695F1DF08C0161617062F
:1026A0001806991FF1CF8695710561050894089564
:1026B000E894BB2766277727CB0197F908958ADF2F
:1026C00008F48FEF08950BD0C0CFB1DF28F0B6DF4C
:1026D00018F0952309F0A2CFA7CF1124EACFC6DFC7
:1026E000A0F3959FD1F3950F50E0551F629FF00125
:1026F000729FBB27F00DB11D639FAA27F00DB11D7E
:10270000AA1F649F6627B00DA11D661F829F222706
:10271000B00DA11D621F739FB00DA11D621F839F8D
:10272000A00D611D221F749F3327A00D611D231F63
:10273000849F600D211D822F762F6A2F11249F57B1
:1027400050408AF0E1F088234AF0EE0FFF1FBB1FD4
:10275000661F771F881F91505040A9F79E3F510573
:1027600070F05CCFA6CF5F3FECF3983EDCF386952C
:1027700077956795B795F795E7959F5FC1F7FE2B1E
:10278000880F911D9695879597F90895629FD001BE
:10279000739FF001829FE00DF11D649FE00DF11D1C
:1027A000929FF00D839FF00D749FF00D659FF00DCB
:1027B0009927729FB00DE11DF91F639FB00DE11DB8
:1027C000F91FBD01CF0111240895991B79E004C0C0
:1027D000991F961708F0961B881F7A95C9F7809560
:1027E000089597FB092E07260AD077FD04D049D01B
:1027F00006D000201AF4709561957F4F0895F6F782
:10280000909581959F4F0895A1E21A2EAA1BBB1B9C
:10281000FD010DC0AA1FBB1FEE1FFF1FA217B307AC
:10282000E407F50720F0A21BB30BE40BF50B661FC2
:10283000771F881F991F1A9469F760957095809586
:1028400090959B01AC01BD01CF01089597FB092E26
:1028500005260ED057FD04D0D7DF0AD0001C38F46F
:1028600050954095309521953F4F4F4F5F4F0895BC
:10287000F6F790958095709561957F4F8F4F9F4F9C
:102880000895AA1BBB1B51E107C0AA1FBB1FA617B7
:10289000B70710F0A61BB70B881F991F5A95A9F709
:1028A00080959095BC01CD010895EE0FFF1F059016
:0A28B000F491E02D0994F894FFCF95
:1028BA000000F041000080440000003E0000F041AA
:1028CA0002000100000000000B0EB00EA10DD20D97
:0428DA00B20DFB0D33
:00000001FF
