:100000000C9463000C948B000C948B000C948B006C
:100010000C948B000C948B000C948B000C948B0034
:100020000C948B000C948B000C948B000C940C0D96
:100030000C948B000C948B000C948B000C948B0014
:100040000C942E110C948B000C94CB0D0C94190E67
:100050000C948B000C948B000C948B000C948B00F4
:100060000C948B000C948B000000000024002700EF
:100070002A0000000000250028002B0000000000DE
:1000800023002600290004040404040404040202DA
:100090000202020203030303030301020408102007
:1000A0004080010204081020010204081020000012
:1000B0000007000201000003040600000000000029
:1000C0000000F102850F11241FBECFEFD8E0DEBF84
:1000D000CDBF11E0A0E0B1E0E8E4FBE202C0059092
:1000E0000D92A832B107D9F712E0A8E2B1E001C041
:1000F0001D92AF38B107E1F710E0C6ECD0E004C0C4
:100100002297FE010E949E15C23CD107C9F70E94AA
:10011000DB0F0C94A2150C940000CF92DF92EF92AB
:10012000FF920F931F938091B3016FE70E942B15ED
:10013000992787FD9095A92FB92FBC01CD010E9469
:10014000E9136B017C016091560170915701809118
:10015000580190915901A70196010E94E512609300
:10016000560170935701809358019093590106E509
:1001700011E0F80192918291729162918F01A70131
:1001800096010E94E612F801608371838283938353
:100190001F910F91FF90EF90DF90CF900895CF9235
:1001A000DF92EF92FF920F931F938091B3016FE75D
:1001B0000E942B15992787FD9095A92FB92FBC0177
:1001C000CD010E94E9136B017C0160915601709191
:1001D00057018091580190915901A70196010E9401
:1001E000E5126093560170935701809358019093E4
:1001F000590106E511E0F8019291829172916291A4
:100200008F01A70196010E94E612F80160837183B5
:10021000828393831F910F91FF90EF90DF90CF9097
:100220000895CF92DF92EF92FF920F931F938091E8
:10023000B2016FE70E942B15992787FD9095A92F92
:10024000B92FBC01CD010E94E9136B017C016091C3
:100250004E0170914F018091500190915101A70181
:1002600096010E94E51260934E0170934F018093B6
:100270005001909351010EE411E0F80192918291A6
:10028000729162918F01A70196010E94E612F80116
:1002900060837183828393831F910F91FF90EF900E
:1002A000DF90CF900895CF92DF92EF92FF920F935D
:1002B0001F938091B2016FE70E942B15992787FD4C
:1002C0009095A92FB92FBC01CD010E94E9136B01B4
:1002D0007C0160914E0170914F018091500190918D
:1002E0005101A70196010E94E51260934E0170939F
:1002F0004F0180935001909351010EE411E0F801F9
:1003000092918291729162918F01A70196010E9450
:10031000E612F80160837183828393831F910F91AA
:10032000FF90EF90DF90CF900895AF92BF92CF9261
:10033000DF92EF92FF920F931F93CF93DF93609121
:10034000B401772767FD7095872F972F0E94E913D7
:10035000209110013091110140911201509113012F
:100360000E949D1420E030E044EA52E40E949D1473
:1003700020E030E044E353E40E944E1320E030E0FC
:1003800048E852E40E94E6120E94B613882777FDDF
:100390008095982F0E94E9137B018C0160934A019C
:1003A00070934B0180934C0190934D0160916A01D1
:1003B00070916B0180916C0190916D0120E030E0B3
:1003C00040E050E00E94E612E0924E01F0924F01B0
:1003D000009350011093510120916E0130916F01F3
:1003E00040917001509171010E94E612E092520119
:1003F000F092530100935401109355012091720122
:100400003091730140917401509175010E94E61280
:10041000E0925601F0925701009358011093590150
:1004200020917601309177014091780150917901C6
:100430000E94E61220E030E040E85EE30E949D1456
:100440005B016C01A80197010E944A138823FCF408
:10045000C601B50120E030E040EF52E40E944A13AB
:100460008823ACF4CAE6D1E0688179818A819B81D6
:1004700020E030E040E85FE30E94E6126993799360
:100480008993999381E0CA37D80771F714C0CAE6F7
:10049000D1E0688179818A819B8120E030E040E869
:1004A0005FE30E94E512699379938993999381E0C0
:1004B000CA37D80771F7DF91CF911F910F91FF9045
:1004C000EF90DF90CF90BF90AF900895EF92FF92A2
:1004D0000F931F930F2EF0E0EF2EF0E0FF2EF0E0D1
:1004E0000F2FF0E01F2FF02DE0924A01F0924B0108
:1004F00000934C0110934D0160916A0170916B0162
:1005000080916C0190916D0120E030E040E85FE364
:100510000E94E51260936A0170936B0180936C01F5
:1005200090936D01E0924E01F0924F0100935001C3
:100530001093510160916E0170916F018091700173
:100540009091710120E030E040E85FE30E94E51205
:1005500060936E0170936F018093700190937101AD
:10056000E0925201F092530100935401109355010F
:100570006091720170917301809174019091750185
:1005800020E030E040E85FE30E94E51260937201F2
:10059000709373018093740190937501E0925601FA
:1005A000F092570100935801109359016091760120
:1005B00070917701809178019091790120E030E08D
:1005C00040E85FE30E94E512609376017093770143
:1005D00080937801909379011F910F91FF90EF9094
:1005E00008950F931F930EE311E0C8010E94C80BFA
:1005F000C80103960E94C80BC80106960E94C80B4A
:10060000C80109960E94C80B6091920170919301F4
:10061000809194019091950120E030E040E85CE306
:100620000E949D14609396017093970180939801A6
:10063000909399011F910F9108950F931F9384E652
:1006400092E00E94DB0E892B49F10091AE011091DE
:10065000AF0184E692E00E940C0F0C551E4FF8018A
:1006600080838091AE019091AF0101969093AF018C
:100670008093AE01019791F49091A401892F80514C
:10068000833060F0903251F0913241F0923231F08B
:10069000943421F01092AF011092AE018091AE011E
:1006A0009091AF01039709F055C02091A401322F1A
:1006B0003051333038F0203229F0213219F0223213
:1006C00009F040C01092AF011092AE018091A001DC
:1006D0009091A101009729F4203171F481E090E01C
:1006E00006C0019749F4203239F482E090E09093FB
:1006F000A1018093A0012EC0323048F48091A50161
:100700008093B2018091A6018093B30123C0822F10
:100710008052823048F48091A5018093B501809188
:10072000A6018093B40116C0223129F41092B201BF
:100730001092B3010FC0223269F41092B4011092EA
:10074000B50108C01092AF011092AE011092A10144
:100750001092A0011F910F9108958091140161E002
:100760000E94FD118091A20160E00E94FD11809124
:10077000160161E00E94FD1184E692E040E855E236
:1007800060E070E00E94540E08950F931F93182F9D
:10079000062F8AE060E00E9469121EBD0DB407FEBC
:1007A000FDCF8EB50EBD0DB407FEFDCF8EB58AE030
:1007B00061E00E9469121F910F910895EF92FF92DC
:1007C0001F93CF93DF93EB017A01182F10686230EB
:1007D000710514F0182F106C8AE060E00E94691215
:1007E0001EBD0DB407FEFDCF8EB520E030E00BC07E
:1007F0001EBC0DB407FEFDCF8EB5F701E20FF31F4F
:1008000080832F5F3F4F2C173D0794F38AE061E010
:100810000E946912DF91CF911F91FF90EF90089590
:1008200082E366E070E04CE251E00E94DE038091DA
:100830002D01992787FD909583709070982F8827B8
:1008400020912C01332727FD3095822B932B9093F9
:1008500033018093320180912F01992787FD909574
:1008600083709070982F882720912E01332727FDC1
:100870003095822B932B9093350180933401809196
:100880003101992787FD909583709070982F882764
:1008900020913001332727FD3095822B932B9093A5
:1008A00037018093360108952F923F924F925F92C5
:1008B0006F927F928F929F92AF92BF92CF92DF9270
:1008C000EF92FF920F931F93DF93CF93CDB7DEB7D5
:1008D00028970FB6F894DEBF0FBECDBF8091A00160
:1008E0009091A101009709F069C080E090E0A8E133
:1008F000B2E480936A0190936B01A0936C01B09372
:100900006D0180934A0190934B01A0934C01B093E9
:100910004D0120E03FEF4FE757E420935A01309319
:100920005B0140935C0150935D0180936E01909355
:100930006F01A0937001B093710180934E01909369
:100940004F01A0935001B093510120935E01309369
:100950005F01409360015093610180937201909315
:100960007301A0937401B093750180935201909329
:100970005301A0935401B093550120936201309329
:1009800063014093640150936501809376019093D5
:100990007701A0937801B0937901809356019093E9
:1009A0005701A0935801B0935901209366013093E9
:1009B0006701409368015093690123C0813091051C
:1009C000F1F48091140160E00E94691280E090E0EF
:1009D00020E030E048E852E4FC01E659FE4F208375
:1009E000318342835383FC01E65BFE4F20833183D6
:1009F0004283538304968031910571F702C00297B8
:100A000061F0AAE48A2EA1E09A2EFAE54F2EF1E0D9
:100A10005F2E54016624772453C480919E019091E7
:100A20009F0103972CF18091B20118161CF40E94CB
:100A3000110104C0882311F00E9453018091B30179
:100A400018161CF40E948D0004C0882311F00E9427
:100A5000CF008091B40118161CF40E94950104C0C7
:100A6000882311F00E94660210929F0110929E014D
:100A700080919E0190919F01019690939F01809398
:100A80009E010E9410046091320170913301209107
:100A9000380130913901621B730B882777FD8095EF
:100AA000982F0E94E9131B012C0120E030E040E068
:100AB00050E00E94991488231CF0C201B10103C0C8
:100AC000C201B101905820E030E040E853E40E94B8
:100AD0004A1387FD98C1C201B1010E94B613672B6A
:100AE00019F5E0907A01F0907B0100917C01109162
:100AF0007D01C801B70120E030E040E050E00E94F5
:100B0000991418161CF4C801B70139C0C801B701FF
:100B100020E030E040E050E00E944A1388230CF0CF
:100B20003CC0C801B70112C0C201B10120E030E0F1
:100B300040E050E00E94991418167CF460917A010C
:100B400070917B0180917C0190917D0120E030E0EB
:100B500040E85FE30E94E61218C0C201B10120E044
:100B600030E040E050E00E944A138823B4F46091E2
:100B70007A0170917B0180917C0190917D0120E050
:100B800030E040E85FE30E94E51260937A017093E1
:100B90007B0180937C0190937D01A0907A01B090BD
:100BA0007B01C0907C01D0907D01E0900401F09029
:100BB00005010091060110910701C601B501A801C8
:100BC00097010E94991418164CF5E0900801F090D6
:100BD000090100910A0110910B0160916A01709165
:100BE0006B0180916C0190916D01A80197010E94A9
:100BF000E61260936A0170936B0180936C0190938D
:100C00006D0160916E0170916F0180917001909102
:100C10007101A80197010E94E51232C0A801970155
:100C20005058C601B5010E944A1388230CF041C0F8
:100C3000E0900801F090090100910A0110910B0168
:100C400060916A0170916B0180916C0190916D01CE
:100C5000A80197010E94E51260936A0170936B01ED
:100C600080936C0190936D0160916E0170916F01A2
:100C70008091700190917101A80197010E94E61284
:100C800060936E0170936F01809370019093710176
:100C90008091140161E00E94691280E090E0A0E080
:100CA000B0E080937A0190937B01A0937C01B09394
:100CB0007D0160918A0170918B0180918C019091EE
:100CC0008D01A20191010E94E6125B016C0160930B
:100CD0008A0170938B0180938C0190938D01C201E6
:100CE000B1012091820130918301409184015091A2
:100CF00085010E94E5123B014C0120928201309255
:100D000083014092840150928501C201B10120917A
:100D100092013091930140919401509195010E946C
:100D20009D147B018C0160919601709197018091D7
:100D3000980190919901A60195010E949D149B0133
:100D4000AC01C801B7010E94E6127B018C01C4010D
:100D5000B30120919A0130919B0140919C015091E7
:100D60009D010E949D149B01AC01C801B7010E9426
:100D7000E6127B018C0160916A0170916B01809198
:100D80006C0190916D0120916E0130916F01409145
:100D90007001509171010E94E51220E030E040E0C6
:100DA0005FE30E949D149B01AC01C801B7010E9442
:100DB000E6127B018C0160914A0170914B01809198
:100DC0004C0190914D01A80197010E94E612609399
:100DD0004A0170934B0180934C0190934D016091B7
:100DE0004E0170914F018091500190915101A801E5
:100DF00097010E94E51260934E0170934F0180931A
:100E00005001909351010E9410046091340170913F
:100E1000350120913A0130913B01621B730B882709
:100E200077FD8095982F0E94E9131B012C0120E08B
:100E300030E040E050E00E94991488231CF0C20189
:100E4000B10103C0C201B101905820E030E040E898
:100E500053E40E944A1387FDA3C1C201B1010E945D
:100E6000B613672B19F5E0907E01F0907F01009199
:100E7000800110918101C801B70120E030E040E01D
:100E800050E00E94991418161CF4C801B70139C02B
:100E9000C801B70120E030E040E050E00E944A1372
:100EA00088230CF03CC0C801B70112C0C201B101D7
:100EB00020E030E040E050E00E94991418167CF4E5
:100EC00060917E0170917F018091800190918101FC
:100ED00020E030E040E85FE30E94E61218C0C20163
:100EE000B10120E030E040E050E00E944A13882346
:100EF000B4F460917E0170917F01809180019091A6
:100F0000810120E030E040E85FE30E94E512609359
:100F10007E0170937F018093800190938101A09066
:100F20007E01B0907F01C0908001D0908101E0905F
:100F30000401F09005010091060110910701C6011E
:100F4000B501A80197010E9499141816A4F5E09024
:100F50000801F090090100910A0110910B016091C4
:100F60007201709173018091740190917501A801D3
:100F700097010E94E612609372017093730180934F
:100F80007401909375016091760170917701809161
:100F9000780190917901A80197010E94E512609370
:100FA0007601709377018093780190937901809115
:100FB000140161E03DC0A80197015058C601B50178
:100FC0000E944A1388230CF041C0E0900801F09081
:100FD000090100910A0110910B0160917201709159
:100FE00073018091740190917501A80197010E948D
:100FF000E512609372017093730180937401909372
:1010000075016091760170917701809178019091DE
:101010007901A80197010E94E6126093760170930E
:10102000770180937801909379018091140160E0B9
:101030000E94691280E090E0A0E0B0E080937E0121
:1010400090937F01A0938001B0938101C201B1010F
:1010500020918E0130918F0140919001509191012A
:101060000E94E6125B016C0160938E0170938F0108
:101070008093900190939101C201B101209186016A
:101080003091870140918801509189010E94E512B9
:101090003B014C01209286013092870140928801E9
:1010A00050928901C201B1012091920130919301C6
:1010B00040919401509195010E949D147B018C01F7
:1010C000C601B50120919601309197014091980198
:1010D000509199010E949D149B01AC01C801B70178
:1010E0000E94E6127B018C01C401B30120919A0198
:1010F00030919B0140919C0150919D010E949D1453
:101100009B01AC01C801B7010E94E6127B018C0172
:1011100060917201709173018091740190917501D9
:1011200020917601309177014091780150917901B9
:101130000E94E51220E030E040E05FE30E949D1451
:101140009B01AC01C801B7010E94E6127B018C0132
:101150006091520170915301809154019091550119
:10116000A80197010E94E612609352017093530107
:1011700080935401909355016091560170915701ED
:101180008091580190915901A80197010E94E512A0
:1011900060935601709357018093580190935901C1
:1011A000EAE42E2EE1E03E2E7AE6472E71E0572E3D
:1011B00042010F2EF0E0AF2EF0E0BF2EF0E0CF2E78
:1011C000F0E0DF2EF02DD101ED90FD900D911C91FE
:1011D000C801B70120E030E048E852E40E944A1319
:1011E00088232CF480E090E0A8E8B2E40EC0C801A7
:1011F000B70120E030E046E153E40E94991418164C
:101200004CF480E090E0A6E1B3E4F10180839183A7
:10121000A283B383C601B501D4012D913D914D91B7
:101220005D914D010E94E6125B016C01E4E0F0E08B
:101230002E0E3F1EFAE52F16F1E03F0621F620E0C4
:1012400030E040E85EE30E949D147B018C01C80100
:10125000B70120E030E046E952E40E944A138823B7
:101260002CF460E070E086E992E40EC0C801B7019A
:1012700020E030E040EF52E40E9499141816B4F4D4
:1012800060E070E080EF92E4A80197010E94E5120F
:101290009B01AC01D2016D917D918D919C910E9439
:1012A000E612F201608371838283938384E090E08D
:1012B000480E591E9AE7491691E0590641F6A1CB0E
:1012C000D501CD90DD90ED90FC90C701B601F20103
:1012D00020813181428153810E944A138823D9F0B1
:1012E0008301000F111F060D171D025C1E4FC70161
:1012F000B6010E94B6139B01AC01C801B9010E945E
:101300001E0CF50180819181A281B381F20180835D
:101310009183A283B3830894611C711C84E090E0E4
:10132000A80EB91E480E591E94E06916710441F6C4
:101330002090000130900101409002015090030183
:10134000D201C101B0588D839E83AF83B88780914D
:101350000C0190910D01A0910E01B0910F018983B4
:101360009A83AB83BC835AE6652E51E0752E80913B
:10137000B0019091B10102970CF463C0D301AD901C
:10138000BD90CD90DC90F401608171818281938168
:10139000A60195010E94E512A20191010E949914F3
:1013A000181664F4C601B501A20191010E94E6126B
:1013B000D4016D937D938D939C931397F401608179
:1013C000718182819381A60195010E94E5122D8190
:1013D0003E814F8158850E944A13882364F4C601D8
:1013E000B501A20191010E94E512D4016D937D9394
:1013F0008D939C931397F401E080F1800281138117
:10140000C801B701A60195010E94E51229813A8120
:101410004B815C810E944E139B01AC01C801B70156
:101420000E94E512D4016D937D938D939D934D01A0
:10143000E4E0F0E06E0E7F1EF1E0AA35BF0709F090
:101440009DCF28960FB6F894DEBF0FBECDBFCF91CB
:10145000DF911F910F91FF90EF90DF90CF90BF90A1
:10146000AF909F908F907F906F905F904F903F9044
:101470002F9008950E9454040E941D0308958F9296
:101480009F92AF92BF92CF92DF92EF92FF920F9313
:101490001F93CF93DF938EE391E063E070E00E94AF
:1014A000050D81E491E065E070E00E94050D84E4A3
:1014B00091E066E070E00E94050D87E491E069E04C
:1014C00070E00E94050D00E010E0C0E0D0E00F2EBB
:1014D000F0E0CF2EF0E0DF2EF8E1EF2EF2E4FF2E69
:1014E000F02D0F2EF0E08F2EFFEF9F2EFFE7AF2E97
:1014F000F7E4BF2EF02DFE01E659FE4FC082D182E7
:10150000E282F382FE01E65BFE4FC082D182E2827C
:10151000F382FE01E65AFE4F80829182A282B3825C
:10152000C801880F991F800F911F825C9E4F66E251
:1015300070E00E941E0C0F5F1F4F249604301105AF
:10154000D1F6DF91CF911F910F91FF90EF90DF9037
:10155000CF90BF90AF909F908F900895CF92DF92E1
:10156000EF92FF920F931F93CF93DF9300E010E071
:10157000EE24FF24CC24DD24C0E0D0E00E9410043F
:101580008091320190913301080F191F809134012D
:1015900090913501E80EF91E809136019091370146
:1015A000C80ED91E219682E0C03DD80739F7C80180
:1015B00060ED72E00E943815709339016093380134
:1015C000C70160ED72E00E94381570933B01609393
:1015D0003A01C60160ED72E00E94381570933D013A
:1015E00060933C0184E692E00E941C1060913801F7
:1015F0007091390184E692E04AE050E00E94FC10CC
:1016000084E692E06CE20E94141060913A017091BD
:101610003B0184E692E04AE050E00E94FC1084E640
:1016200092E06CE20E94141060913C0170913D01C7
:1016300084E692E04AE050E00E940F11DF91CF91E2
:101640001F910F91FF90EF90DF90CF9008950E942F
:10165000B10B82E00E94A00B8CE00E949B0B88E003
:1016600060E00E94FD118AE061E00E94FD118AE0C5
:1016700061E00E94691265E070E080E090E00E9405
:101680009C1181E361E00E94C50380E090E0A0E846
:10169000B0E48093280190932901A0932A01B0938C
:1016A0002B0165E070E080E090E00E949C118DE2EB
:1016B00068E00E94C50365E070E080E090E00E9471
:1016C0009C118EE260E80E94C50365E070E080E056
:1016D00090E00E949C118FE26FE70E94C50365E0D5
:1016E00070E080E090E00E949C118CE26FE00E942C
:1016F000C50365E070E080E090E00E949C1188E303
:1017000060E00E94C50365E070E080E090E00E9428
:101710009C11089584E692E040E855E260E070E0B4
:101720000E94540E0E943F0A0E94270B0E94AE0A9C
:101730000E94AD0308959CB5937F982B9CBD08959E
:101740002CB5382F33702C7F322B3CBD2DB590E05B
:10175000959587959595879581702E7F822B8DBD68
:1017600008958AE061E00E9469128AE061E00E94C7
:10177000FD118CB580618CBD8CB580648CBD8DE015
:1017800061E00E94FD118BE061E00E94FD1108956F
:10179000FC018091B6018C3090F480838F5F809340
:1017A000B601815090E0FC01EE0FFF1FE80FF91F1A
:1017B000E954FE4F88EB9BE09283818308958FEF7D
:1017C00080830895FC0120812C30B8F58181992710
:1017D00087FD909548E850E0481B590B440F551F72
:1017E000440F551F6417750784F08281992787FD80
:1017F000909548E552E0481B590B440F551F440F84
:10180000551F641775070CF4AB0142505040CA01D4
:10181000AA2797FDA095BA2F880F991FAA1FBB1F53
:101820004FB7F89430E0F901EE0FFF1FE20FF31FFE
:10183000E954FE4F928381834FBF0895AF92BF92C8
:10184000CF92DF92EF92FF920F931F93CF93DF938C
:10185000EC019B0182E0603278070CF048C077FF12
:1018600003C020E030E005C0653B710514F024EBB7
:1018700030E000D000D0B901882777FD8095982FFF
:101880002981332727FD3095B8E8AB2EB12CA21A59
:10189000B30AAA0CBB1CAA0CBB1CCC24B7FCC0947A
:1018A000DC2CEA81FF27E7FDF09528E532E02E1BCE
:1018B0003F0B220F331F220F331F442737FD409564
:1018C000542FEDB7FEB7218332834383548320E046
:1018D00030E040E050E0E4EBEE2EF12C012D112D34
:1018E0000E949C129B010F900F900F900F90CE01C1
:1018F000B9010E94E20BDF91CF911F910F91FF90F0
:10190000EF90DF90CF90BF90AF900895CF92DF928D
:10191000EF92FF921F93CF93DF93EC01162F7A0182
:10192000690188818C3008F064C0862F61E00E94D4
:10193000FD11888190E0FC01EE0FFF1FE80FF91FF9
:10194000E954FE4F1F738081807C812B808380E26D
:1019500092E08E199F0964E070E00E943815698357
:1019600080E699E08C199D0964E070E00E943815CA
:101970006A83A8818A2F6CE00E941F15682F70E08F
:10198000AB01440F551F460F571F440F551F440FFF
:10199000551F20E030E0C901840F951FFC01EE0FB8
:1019A000FF1FE80FF91FE954FE4F808186FD15C027
:1019B0002F5F3F4F2C30310571F724C0109280000B
:1019C00082E0809381001092850010928400B19A89
:1019D00080916F00826080936F008A2F90E0FC01FD
:1019E000EE0FFF1FE80FF91FE954FE4F808180645E
:1019F00080838881DF91CF911F91FF90EF90DF90DE
:101A0000CF900895672BD1F2E8CF40E252E020E674
:101A100039E00E94860C08951F920F920FB60F9224
:101A200011242F933F934F935F936F937F938F93E3
:101A30009F93AF93BF93EF93FF938091DB0187FF59
:101A400005C010928500109284002BC02091DB010C
:101A5000332727FD30958091B60190E0281739078C
:101A600004F58091DB01992787FD9095FC01EE0F2D
:101A7000FF1FE80FF91FE954FE4F808186FF11C058
:101A80008091DB01992787FD9095FC01EE0FFF1FE8
:101A9000E80FF91FE954FE4F80818F7360E00E94C8
:101AA00069128091DB018F5F8093DB012091DB0164
:101AB000332727FD30958091B60190E0281739072C
:101AC0000CF04EC08091DB018C300CF049C02091AD
:101AD0008400309185008091DB01992787FD9095E6
:101AE000FC01EE0FFF1FE80FF91FE954FE4F818143
:101AF0009281280F391F30938900209388008091AC
:101B0000DB01992787FD9095FC01EE0FFF1FE80F81
:101B1000F91FE954FE4F808186FF2BC08091DB01C5
:101B2000992787FD9095FC01EE0FFF1FE80FF91F25
:101B3000E954FE4F80818F7361E00E94691219C0E1
:101B400080E49CE905C08091840090918500049612
:101B500090938900809388008FEF8093DB0109C008
:101B60008091840090918500049680549C4940F3B4
:101B7000EACFFF91EF91BF91AF919F918F917F91AC
:101B80006F915F914F913F912F910F900FBE0F90EA
:101B90001F90189508951F920F920FB60F9211245F
:101BA0002F933F934F938F939F93EF93FF93809146
:101BB000C00082FD1DC04091C60020911C023091E2
:101BC0001D022F5F3F4F2F73307080911E02909146
:101BD0001F022817390771F0E0911C02F0911D02D5
:101BE000E452FE4F408330931D0220931C0202C03A
:101BF0008091C600FF91EF919F918F914F913F91FE
:101C00002F910F900FBE0F901F901895E0917002CA
:101C1000F0917102E05CFF4F8191919120813181BF
:101C2000821B930B8F739070892B11F00E94CA0D49
:101C300008951F920F920FB60F9211242F933F9386
:101C40008F939F93EF93FF932091600230916102F5
:101C500080916202909163022817390731F48091D4
:101C6000C1008F7D8093C10014C0E0916202F091A9
:101C70006302E05EFD4F20818091620290916302D9
:101C800001968F7390709093630280936202209309
:101C9000C600FF91EF919F918F913F912F910F90EF
:101CA0000FBE0F901F901895AF92BF92DF92EF92E8
:101CB000FF920F931F93CF93DF93EC017A018B0177
:101CC000DD24403081EE580780E0680780E0780727
:101CD00011F0DD24D39491E0A92EB12CEC89FD897B
:101CE000DD2069F0C50108A002C0880F991F0A9481
:101CF000E2F7808360E079E08DE390E005C0108238
:101D000060E874E88EE190E0A80197010E944B150D
:101D10002150304040405040569547953795279583
:101D200080E12030380720F0DD2011F0DD24D6CF0F
:101D3000E889F9893083EA89FB89208319A2EE8931
:101D4000FF89408121E030E0C9010C8C02C0880F7E
:101D5000991F0A94E2F7482B4083EE89FF8940815E
:101D6000C9010D8C02C0880F991F0A94E2F7482B15
:101D70004083EE89FF894081C9010E8C02C0880F23
:101D8000991F0A94E2F7482B4083EE89FF898081EE
:101D90000F8C02C0220F331F0A94E2F720952823EC
:101DA0002083DF91CF911F910F91FF90EF90DF90F3
:101DB000BF90AF900895DC011C96ED91FC911D97AA
:101DC000E05CFF4F2191319180819181281B390B7B
:101DD0002F733070C9010895DC011C96ED91FC91C0
:101DE0001D97E05CFF4F20813181E054F040DF011E
:101DF000AE5BBF4F8D919C9111972817390719F44D
:101E00002FEF3FEF07C08D919C91E80FF91F808164
:101E1000282F30E0C9010895DC011C96ED91FC915A
:101E20001D97E05CFF4F20813181E054F040DF01DD
:101E3000AE5BBF4F8D919C9111972817390719F40C
:101E40002FEF3FEF10C08D919C911197E80FF91F74
:101E500020818D919C91119701968F7390701196AE
:101E60009C938E9330E0C9010895DC0191968C918A
:101E70009197882339F05496ED91FC915597808184
:101E800086FFF9CF91961C920895CF93DF93EC01D2
:101E9000EE85FF85E05CFF4F20813181E054F0400A
:101EA0002F5F3F4F2F733070DF01AE5BBF4F8D91BF
:101EB0009C91119728173907D1F3E05CFF4F80817F
:101EC0009181E054F040E80FF91F6083EE85FF85B3
:101ED000E05CFF4F31832083EE89FF89208181E020
:101EE00090E00F8C02C0880F991F0A94E2F7282B0C
:101EF000208381E089A3EC89FD89808180648083CF
:101F000081E090E0DF91CF910895109267021092E6
:101F1000660288EE93E0A0E0B0E0809368029093C0
:101F20006902A0936A02B0936B028CE191E09093F6
:101F30006502809364028CED91E09093710280932E
:101F4000700280E292E0909373028093720285ECBB
:101F500090E0909375028093740284EC90E09093EB
:101F600077028093760280EC90E0909379028093E0
:101F7000780281EC90E090937B0280937A0282EC6D
:101F800090E090937D0280937C0286EC90E09093A9
:101F90007F0280937E0284E08093800283E08093BE
:101FA000810287E08093820285E08093830281E052
:101FB000809384020895CF93DF930E94C2110E9400
:101FC0008A0BC6E0DEE00E943A0A2097E1F30E9405
:101FD000060EF9CFCF92DF92EF92FF920F931F93ED
:101FE000CF93DF937C016B018A01C0E0D0E00FC08A
:101FF000D6016D916D01D701ED91FC910190F081B9
:10200000E02DC7010995C80FD91F015010400115D7
:10201000110571F7CE01DF91CF911F910F91FF90C4
:10202000EF90DF90CF900895DC01ED91FC9101904D
:10203000F081E02D09950895EF92FF920F931F9381
:102040008C01DC01ED91FC910190F081E02D6DE0BF
:1020500009957C01D801ED91FC910190F081E02D72
:10206000C8016AE009959C012E0D3F1DC9011F9111
:102070000F91FF90EF900895CF93DF93EC016115DE
:10208000710519F420E030E00FC0DB010D90002055
:10209000E9F71197A61BB70BE881F9810280F3815C
:1020A000E02DAD0109959C01C901DF91CF91089503
:1020B0004F925F927F928F929F92AF92BF92CF92F8
:1020C000DF92EF92FF920F931F93DF93CF93CDB7E1
:1020D000DEB7A1970FB6F894DEBF0FBECDBF2C01BF
:1020E000742ECB01223008F42AE019A231E2C32E6B
:1020F000D12CCC0EDD1E822E9924AA24BB24672D60
:10210000752FA50194010E944B1579018A01C80120
:10211000B701A50194010E940015472D461B0894A4
:10212000C108D1084A3014F4405D01C0495CF60191
:102130004083E114F1040105110521F07E2C5F2D8F
:10214000C801DDCFC201B6010E943C10A1960FB6B6
:10215000F894DEBF0FBECDBFCF91DF911F910F91DD
:10216000FF90EF90DF90CF90BF90AF909F908F90B7
:102170007F905F904F900895CF92DF92EF92FF9201
:102180000F931F93CF93DF93EC016A017B0121151D
:10219000310541F4E881F9810190F081E02D642F4F
:1021A00009951FC02A303105D1F477FF17C0E881A7
:1021B000F9810190F081E02D6DE209958C014427B1
:1021C0005527BA014C195D096E097F09CE012AE035
:1021D0000E9458109801280F391F04C02AE00E945D
:1021E00058109C01C901DF91CF911F910F91FF9071
:1021F000EF90DF90CF900895EF92FF920F931F938F
:102200007B019A010027F7FC0095102FB801A70168
:102210000E94BC101F910F91FF90EF900895CF92F4
:10222000DF92EF92FF920F931F936C017B019A0153
:102230000027F7FC0095102FB801A7010E94BC10E1
:102240008C01C6010E941C10080F191FC8011F91A4
:102250000F91FF90EF90DF90CF9008951F920F9213
:102260000FB60F9211242F933F938F939F93AF93A9
:10227000BF9380918A0290918B02A0918C02B091C1
:102280008D0230918E020196A11DB11D232F2D5F6D
:102290002D3720F02D570196A11DB11D20938E02E0
:1022A00080938A0290938B02A0938C02B0938D024C
:1022B0008091860290918702A0918802B091890254
:1022C0000196A11DB11D8093860290938702A09371
:1022D0008802B0938902BF91AF919F918F913F91F6
:1022E0002F910F900FBE0F901F9018959FB7F894E5
:1022F0002091860230918702409188025091890294
:1023000086B5A89B06C08F3F21F02F5F3F4F4F4FF0
:102310005F4F9FBF542F432F322F2227280F311D8D
:10232000411D511D82E0220F331F441F551F8A9506
:10233000D1F7B901CA010895EF92FF920F931F934D
:10234000CF93DF937B018C010E947611EB010EC0CD
:102350000E9476116C1B7D0B685E7340C8F3089475
:10236000E108F10801091109C851DC4FE114F10439
:102370000105110569F7DF91CF911F910F91FF9032
:10238000EF900895789484B5826084BD84B58160AF
:1023900084BD85B5826085BD85B5816085BDEEE66D
:1023A000F0E0808181608083E1E8F0E0108280814C
:1023B00082608083808181608083E0E8F0E08081BA
:1023C00081608083E1EBF0E0808184608083E0EBDA
:1023D000F0E0808181608083EAE7F0E080818460C2
:1023E000808380818260808380818160808380811E
:1023F000806880831092C1000895CF93DF93482FA7
:1024000050E0CA0186569F4FFC0134914A575F4FF6
:10241000FA018491882369F190E0880F991FFC01EB
:10242000E859FF4FA591B491FC01EE58FF4FC591BB
:10243000D491662351F42FB7F8948C91932F9095F3
:1024400089238C93888189230BC0623061F42FB774
:10245000F8948C91932F909589238C938881832B6A
:1024600088832FBF06C09FB7F8948C91832B8C93E1
:102470009FBFDF91CF910895833071F0843028F4AD
:102480008130A1F0823021F514C08630B1F0873060
:10249000D1F08430E9F404C0809180008F7703C0CC
:1024A000809180008F7D80938000089584B58F7720
:1024B00002C084B58F7D84BD08958091B0008F7770
:1024C0008093B00008958091B0008F7D8093B0001C
:1024D0000895FF920F931F93F62E482F50E0CA01E4
:1024E00082559F4FFC012491CA0186569F4FFC01E3
:1024F00014914A575F4FFA0104910023C9F0222337
:1025000019F0822F0E943C12E02FF0E0EE0FFF1F27
:10251000EE58FF4FA591B4919FB7F894FF2021F496
:102520008C911095812302C08C91812B8C939FBF3D
:102530001F910F91FF9008952F923F924F925F92BB
:102540006F927F928F929F92AF92BF92CF92DF92C3
:10255000EF92FF920F931F93DF93CF93CDB7DEB728
:102560003B014C0119012A016D897E898F89988D63
:102570006A197B098C099D09621A730A840A950AF3
:10258000A40193010E940015E218F308040915093B
:10259000A80197010E946D152A0D3B1D4C1D5D1D64
:1025A000B901CA01CF91DF911F910F91FF90EF9078
:1025B000DF90CF90BF90AF909F908F907F906F9063
:1025C0005F904F903F902F9008955058BB27AA27B7
:1025D0000ED075C166D130F06BD120F031F49F3F41
:1025E00011F41EF45BC10EF4E095E7FB51C1E92F35
:1025F00077D180F3BA17620773078407950718F03D
:1026000071F49EF58FC10EF4E0950B2EBA2FA02D1C
:102610000B01B90190010C01CA01A0011124FF278F
:10262000591B99F0593F50F4503E68F11A16F0408A
:10263000A22F232F342F4427585FF3CF4695379589
:102640002795A795F0405395C9F77EF41F16BA0B4E
:10265000620B730B840BBAF09150A1F0FF0FBB1FFC
:10266000661F771F881FC2F70EC0BA0F621F731F45
:10267000841F48F4879577956795B795F7959E3FA2
:1026800008F0B3CF9395880F08F09927EE0F979530
:1026900087950895D9D008F481E008950CD00FC132
:1026A00007D140F0FED030F021F45F3F19F0F0C0C8
:1026B000511139C1F3C014D198F39923C9F35523AB
:1026C000B1F3951B550BBB27AA2762177307840725
:1026D00038F09F5F5F4F220F331F441FAA1FA9F3DB
:1026E00033D00E2E3AF0E0E830D091505040E695CD
:1026F000001CCAF729D0FE2F27D0660F771F881F2E
:10270000BB1F261737074807AB07B0E809F0BB0B1C
:10271000802DBF01FF2793585F4F2AF09E3F510540
:1027200068F0B6C000C15F3FECF3983EDCF38695DD
:1027300077956795B795F7959F5FC9F7880F911DB6
:102740009695879597F90895E1E0660F771F881FA2
:10275000BB1F621773078407BA0720F0621B730B55
:10276000840BBA0BEE1F88F7E095089504D06894A7
:10277000B111D9C00895BCD088F09F5790F0B92FFF
:102780009927B751A0F0D1F0660F771F881F991FC6
:102790001AF0BA95C9F712C0B13081F0C3D0B1E0D8
:1027A0000895C0C0672F782F8827B85F39F0B93FE8
:1027B000CCF3869577956795B395D9F73EF49095C8
:1027C0008095709561957F4F8F4F9F4F0895E89446
:1027D00009C097FB3EF490958095709561957F4F69
:1027E0008F4F9F4F9923A9F0F92F96E9BB27939517
:1027F000F695879577956795B795F111F8CFFAF427
:10280000BB0F11F460FF1BC06F5F7F4F8F4F9F4F57
:1028100016C0882311F096E911C0772321F09EE8B5
:10282000872F762F05C0662371F096E8862F70E01B
:1028300060E02AF09A95660F771F881FDAF7880FF5
:102840009695879597F90895990F0008550FAA0B4B
:10285000E0E8FEEF16161706E807F907C0F01216B3
:102860001306E407F50798F0621B730B840B950BB6
:1028700039F40A2661F0232B242B252B21F408950B
:102880000A2609F4A140A6958FEF811D811D0895A8
:1028900097F99F6780E870E060E008959FEF80EC13
:1028A000089500240A9416161706180609060895B6
:1028B00000240A9412161306140605060895092E1C
:1028C0000394000C11F4882352F0BB0F40F4BF2B8B
:1028D00011F460FF04C06F5F7F4F8F4F9F4F0895CB
:1028E00057FD9058440F551F59F05F3F71F04795C1
:1028F000880F97FB991F61F09F3F79F087950895A6
:10290000121613061406551FF2CF4695F1DF08C0C4
:10291000161617061806991FF1CF869571056105E1
:1029200008940895E894BB2766277727CB0197F989
:1029300008958ADF08F48FEF08950BD0C0CFB1DF80
:1029400028F0B6DF18F0952309F0A2CFA7CF112405
:10295000EACFC6DFA0F3959FD1F3950F50E0551F46
:10296000629FF001729FBB27F00DB11D639FAA27E4
:10297000F00DB11DAA1F649F6627B00DA11D661F33
:10298000829F2227B00DA11D621F739FB00DA11D54
:10299000621F839FA00D611D221F749F3327A00D0E
:1029A000611D231F849F600D211D822F762F6A2FAA
:1029B00011249F5750408AF0E1F088234AF0EE0F2F
:1029C000FF1FBB1F661F771F881F91505040A9F73C
:1029D0009E3F510570F05CCFA6CF5F3FECF3983E71
:1029E000DCF3869577956795B795F795E7959F5FA3
:1029F000C1F7FE2B880F911D9695879597F908953D
:102A0000629FD001739FF001829FE00DF11D649FD2
:102A1000E00DF11D929FF00D839FF00D749FF00D5E
:102A2000659FF00D9927729FB00DE11DF91F639FFF
:102A3000B00DE11DF91FBD01CF0111240895991BAF
:102A400079E004C0991F961708F0961B881F7A95A5
:102A5000C9F78095089587FB082E062687FD819586
:102A600067FD6195ECDF0EF4919507FC8195089563
:102A700097FB092E07260AD077FD04D049D006D04F
:102A800000201AF4709561957F4F0895F6F79095A0
:102A900081959F4F0895A1E21A2EAA1BBB1BFD0131
:102AA0000DC0AA1FBB1FEE1FFF1FA217B307E4072D
:102AB000F50720F0A21BB30BE40BF50B661F771F85
:102AC000881F991F1A9469F7609570958095909565
:102AD0009B01AC01BD01CF01089597FB092E05268E
:102AE0000ED057FD04D0D7DF0AD0001C38F4509523
:102AF0004095309521953F4F4F4F5F4F0895F6F722
:102B000090958095709561957F4F8F4F9F4F089559
:102B1000AA1BBB1B51E107C0AA1FBB1FA617B70703
:102B200010F0A61BB70B881F991F5A95A9F780951F
:102B30009095BC01CD010895EE0FFF1F0590F49113
:082B4000E02D0994F894FFCF89
:102B48000000F041000080440000003E0000F04119
:102B5800BE6AB53F0200010000000000450FEA0F01
:082B6800DB0E0C0FEC0E350F23
:00000001FF
